:020000040800F2
:10000000008000205D8A0008AD8A0008858800080D
:10001000AD8A0008AD8A0008AD8A00080000000023
:10002000000000000000000000000000AD8A000891
:10003000AD8A000800000000AD8A00088D88000825
:10004000AD8A0008AD8A0008AD8A0008AD8A0008B4
:10005000AD8A0008AD8A0008AD8A0008AD8A0008A4
:10006000AD8A0008AD8A0008AD8A000861870008E3
:10007000AD8A0008AD8A0008AD8A0008AD8A000884
:10008000AD8A000800000000CD860008AD8A000897
:10009000AD8A0008AD8A0008AD8A00081186000804
:1000A000F9860008DD860008AD8A0008AD8A0008E0
:1000B000AD8A0008AD8A000839870008AD8A0008BB
:1000C000AD8A0008AD8A0008AD8A0008AD8A000834
:1000D000AD8A0008AD8A000885870008AD8A00084F
:1000E000B9880008AD8A0008AD8A0008AD8A00080A
:1000F000AD8A0008AD8A0008AD8A00080000000043
:1001000000000000AD8A000800000000AD8A000871
:10011000AD8A000800000000AD8A0008AD8A000822
:10012000AD8A0008AD8A0008AD8A0008AD8A0008D3
:10013000AD8A00080000000000000000AD8A000841
:10014000AD8A0008AD8A0008000000000000000031
:10015000000000000000000000000000000000009F
:10016000000000000000000000000000AD8A000850
:10017000AD8A000800000000000000000000000040
:1001800000000000AD8A0008000000000000000030
:10019000000000000000000000000000000000005F
:1001A0000000000000000000AD8A0008AD8A0008D1
:1001B000AD8A0008AD8A0008AD8A00080000000082
:1001C00000000000AD8A00080000000000000000F0
:0801D000AD8A0008AD8A0008A9
:1001D8000348044B834202D0034B03B118477047CE
:1001E8005C1E00205C1E0020000000000548064937
:1001F8000B1AD90F01EBA301491002D0034B03B12D
:10020800184770475C1E00205C1E0020000000009C
:1002180010B5064C237843B9FFF7DAFF044B13B146
:100228000448AFF300800123237010BD601E002036
:1002380000000000B08A000808B5044B1BB104494F
:100248000448AFF30080BDE80840CFE70000000095
:10025800641E0020B08A000870B50D4E0D4D761B47
:10026800B61006D00024013455F8043B9847A6423E
:10027800F9D1094E094D761B08F016FCB61006D0C8
:100288000024013455F8043B9847A642F9D170BDC3
:10029800FC8D0008FC8D0008008E0008FC8D00080D
:1002A800844641EA000313F003036DD1403A41D379
:1002B80051F8043B40F8043B51F8043B40F8043B38
:1002C80051F8043B40F8043B51F8043B40F8043B28
:1002D80051F8043B40F8043B51F8043B40F8043B18
:1002E80051F8043B40F8043B51F8043B40F8043B08
:1002F80051F8043B40F8043B51F8043B40F8043BF8
:1003080051F8043B40F8043B51F8043B40F8043BE7
:1003180051F8043B40F8043B51F8043B40F8043BD7
:1003280051F8043B40F8043B51F8043B40F8043BC7
:10033800403ABDD2303211D351F8043B40F8043B67
:1003480051F8043B40F8043B51F8043B40F8043BA7
:1003580051F8043B40F8043B103AEDD20C3205D377
:1003680051F8043B40F8043B043AF9D2043208D06F
:10037800D2071CBF11F8013B00F8013B01D30B88E1
:1003880003806046704700BF082A13D38B078DD0BF
:1003980010F003038AD0C3F10403D21ADB071CBF91
:1003A80011F8013B00F8013B80D331F8023B20F8FB
:1003B800023B7BE7043AD9D3013A11F8013B00F834
:1003C800013BF9D20B7803704B7843708B788370BC
:1003D80060467047F0B4860746D0541E002A3CD0C9
:1003E800CAB2034602E014F1FF3436D303F8012BF6
:1003F8009D07F8D1032C29D9CDB245EA05250F2C44
:1004080045EA054533D9A4F11006360903F120075A
:1004180007EB061703F1100242E9045542E90255B9
:100428001032BA42F8D1721C14F00C0F03EB02120E
:1004380004F00F0613D0331F23F0030304331344CF
:1004480042F8045B9342FBD106F003042CB1C9B215
:100458001C4403F8011B9C42FBD1F0BC7047344696
:100468001346002CF3D1F8E714460346C2E71A46B0
:100478002646E0E7104B1B680BB90120704710B502
:1004880004464FF47A70B0FBF3F30C4A1068B0FBE3
:10049800F3F000F079F868B90F2C01D901200AE0CF
:1004A800002221464FF0FF3000F03AF8044B1C6060
:1004B800002000E0012010BD00000020581E002090
:1004C8000400002010B5032000F018F80420FFF7FE
:1004D800D1FF10B10124204610BD044608F074F87D
:1004E800F9E70000034A1368034909680B441360DD
:1004F800704700BF4830002000000020074AD3683A
:1005080023F4E0631B041B0C000200F4E0600343C7
:1005180043F0BF6343F40033D360704700ED00E05D
:1005280030B4174BDB68C3F30223C3F10704042C70
:1005380028BF04241D1D062D18D9033B4FF0FF3595
:1005480005FA04F421EA0401994005FA03F322EAC2
:100558000303194300280BDB0901C9B200F160400D
:1005680000F5614080F8001330BC70470023E5E7D0
:1005780000F00F000901C9B2024B1954F4E700BF9B
:1005880000ED00E014ED00E00138B0F1807F0AD200
:10059800064B5860064AF02182F823100020986024
:1005A80007221A6070470120704700BF10E000E082
:1005B80000ED00E0704708B5FFF7FCFF08BD00003C
:1005C800024A936843F48043936070470070004088
:1005D800014B1868704700BF581E002010B44C68C3
:1005E8004FF0A0439B6813F0010300D00123114A88
:1005F800926812F0010200D00122134315D164B1B0
:1006080082680D4B13400A6814438A681443CA6809
:1006180014431C438460002008E08268064B1340A2
:100628000A6813438360002000E001205DF8044B52
:10063800704700BF00010050E030C0FF836813F02E
:10064800010F10D110B4C36823F4404323F01803FA
:100658000A684C68224389680A431343C360002030
:100668005DF8044B70470120704700004A688368B2
:1006780013F0010F26D110B4BAB1C368124A1A4058
:100688000B688C682343CC6823430C6923434C696B
:1006980023431343C3604B68026B22F00F021343DA
:1006A800036300205DF8044B7047C368064A1A408C
:1006B8000B68CC6823430C6923434C6923431343D9
:1006C800C360E8E7012070471CC0F0FF4A688368F0
:1006D80013F0010F1ED110B4AAB1C36823F004733C
:1006E8008A68CC6822431343C360C36C23F4FF7346
:1006F80023F001030A6849680A431343C3640020CE
:100708005DF8044B7047C36823F00473CA68134349
:10071800C360EAE7012070470368002B12DB10B4BE
:100728000368094A1A400B684C6823438C682343C2
:10073800CC68234309690B431343036000205DF829
:10074800044B7047012070470F7E00FF70B4956816
:10075800066801F010040123A340B34349D07DB3D8
:10076800C02D0DD0036840F6FC71A14023EA0103B7
:1007780011680D43D1680D43A5401D43056028E06D
:100788000368C026A64023EA0603A5401D4305606A
:10079800036E40F60F76A64023EA060615685368EE
:1007A8009B081B0243EA9503A3403343036600F109
:1007B8005803C909890001F00401D5685D5008E0B3
:1007C8000368FC21A14023EA01031168A1400B43FF
:1007D8000360C36B0721A14023EA0101136955692E
:1007E8002B4392691343A3400B43C363002070BC9F
:1007F80070470120FBE700000346027A002A00F058
:10080800B18010B4006800283FD05A7A012A1DD060
:10081800022A26D062B101209A7A002A35D0022A0B
:100828003FD0032A48D0012A25D040F002002CE00E
:1008380002F1804202F58232516821EA00005060DC
:1008480019681068014311600020E5E7514A1168F2
:1008580021EA0000106019685068014351600020C7
:10086800DAE74C4A11680843106019685068014378
:1008780051600020D0E71C68464AD16821EA04018B
:10088800D16019689468214391605A68002A51D050
:10089800597A012931D0022939D0B9B140F0040080
:1008A80020E01C683B4A916821EA040191601968BC
:1008B800D4682143D160E8E71968364A946821432F
:1008C80091601968D4682143D160DEE701F1804165
:1008D80001F582314C6A24EA02024A625A680C6ABB
:1008E80022430A629A7A2AB3022A26D0032A2FD0F0
:1008F800012A15D040F005001CE026490C6A24EABC
:1009080002020A625A684C6A22434A62EAE72149AB
:100918000C6A22430A625A684C6A22434A62E1E737
:100928005C681C4AD16A21EA0401D1625B68916A59
:100938000B4393625DF8044B70475C68154A916AF3
:1009480021EA040191625B68D16A0B43D362F1E743
:100958005968104A946A214391625B68D16A0B43D3
:10096800D362E7E700680B4A116821EA00011160C9
:100978001868516821EA000151605868116A21EA33
:10098800000111625968536A23EA01035362002087
:10099800704700BF00040140F0B40A6892FAA2F25E
:1009A80012B1B2FA82F248E0202246E0202558E04F
:1009B8002024640006FA04F42C4384600E68CD6891
:1009C800446824EA060405FB06F52C4344600E69D6
:1009D800C46893FAA3F5002D50D0B5FA85F56D00DB
:1009E800032707FA05F524EA050593FAA3F4002C72
:1009F80046D0B4FA84F4640006FA04F42C43C460C4
:100A08004C68022C3ED04E68056893FAA3F4002C7B
:100A180074D0B4FA84F46400032707FA04F425EACE
:100A2800040493FAA3F3002B6AD0B3FA83F35B00B0
:100A380006FA03F32343036001320B6833FA02F426
:100A480060D0012494402340F6D04C68013C012C2E
:100A5800BDD88E68846893FAA3F5002DA6D0B5FAA0
:100A680085F56D00032707FA05F524EA050593FACD
:100A7800A3F4002C9CD0B4FA84F49AE72025AEE7BE
:100A88002024B8E7FF2B1BD84E69046A93FAA3F514
:100A980095B1B5FA85F5AD000F2707FA05F524EAF3
:100AA800050593FAA3F44CB1B4FA84F4A40006FA49
:100AB80004F42C430462A6E72025ECE72024F5E79C
:100AC8004F69466A1C0A94FAA4F59DB1B5FA85F5F2
:100AD800AD004FF00F0C0CFA05F526EA050594FA5F
:100AE800A4F44CB1B4FA84F4A40007FA04F42C4337
:100AF800446288E72025EBE72024F5E720248AE7ED
:100B0800202394E70020F0BC70474B680268002A55
:100B180021DB602B11D010B4026822F4C12222F02C
:100B2800EC020C6823438C682343C9680B431343C6
:100B3800036000205DF8044B7047036823F4C12369
:100B480023F0EC030A6889680A43134343F06003FF
:100B5800036000207047012070470000044B9B6829
:100B6800C3F30313034AD35C03F01F03D840704751
:100B780000100240DC8D0008044B9B68C3F302237D
:100B8800034AD35C03F01F03D840704700100240AB
:100B9800EC8D0008044B9B68C3F3C223034AD35C63
:100BA80003F01F03D840704700100240EC8D000886
:100BB8000E4BDB6803F00303032B14D00C4B0B4ADA
:100BC800D068C0F3062000FB03F0D368C3F3031317
:100BD8000133B0FBF3F0D368C3F3416301335B0027
:100BE800B0FBF3F07047034BE9E700BF0010024089
:100BF8000024F40000127A0008B5074B9B6803F044
:100C08000C03082B04D00C2B04D1FFF7D1FF02E012
:100C1800024800E0024808BD0010024000127A00B5
:100C28000024F40008B5032805D00C282CD030285F
:100C380053D0002008BD3D4BD3F88830034043EA29
:100C480000403B4B98420FD0B0F1031F13D0013B3B
:100C5800984206D0FFF7D0FFFFF780FFFFF79AFF13
:100C6800E8E7FFF7C9FFE5E7304B186810F4806044
:100C7800E0D03048DEE72D4BD3F8900010F00200AA
:100C8800D8D04FF40040D5E7284BD3F8883003403C
:100C980043EA0040284B98420FD0B0F10C1F13D004
:100CA800043B984206D0FFF7A7FFFFF757FFFFF76F
:100CB80063FFBFE7FFF7A0FFBCE71C4B186810F401
:100CC8008060B7D01B48B5E7184BD3F8900010F0F8
:100CD8000200AFD04FF40040ACE7144BD3F8883093
:100CE800034043EA0040154B98420FD0B0F1301F43
:100CF80013D0103B984206D0FFF77EFFFFF72EFF78
:100D0800FFF73AFF96E7FFF777FF93E7074B186877
:100D180010F480608ED007488CE7044BD3F890001D
:100D280010F0020086D04FF4004083E70010024024
:100D3800020003000024F40008000C00200030002A
:100D4800C02801D00020704708B5144BD3F888306C
:100D5800034043EA0040124B98420FD0B0F1C01F45
:100D680013D0403B984206D0FFF746FFFFF7F6FE48
:100D7800FFF702FF01E0FFF73FFF08BD074B1868C8
:100D880010F48060F9D00748F7E7044BD3F89000D7
:100D980010F00200F1D04FF40040EEE700100240DE
:100DA8008000C0000024F40030B4036A23F001037B
:100DB8000362036A4468826922F4803222F0730273
:100DC8000D682A4323F002030D692B4323F0010326
:100DD8004D682B43164DA8420FD005F50065A84273
:100DE8000BD005F54065A84207D005F58065A842F7
:100DF80003D005F58065A84212D123F008034D6998
:100E080043EA850323F004038D6843EA850324F449
:100E180080748D692C4324F40074CD6944EA450438
:100E280044608261CA6842630362002030BC704734
:100E3800002C014030B4036A23F010030362036AF4
:100E48004468826922F0807222F4E6420D6842EA20
:100E5800052223F020030D6943EA051323F010034C
:100E68004D6843EA0513174DA8420FD005F50065F4
:100E7800A8420BD005F54065A84207D005F5806566
:100E8800A84203D005F58065A84213D123F080035A
:100E98004D6943EA851323F040038D6843EA8513BF
:100EA80024F480648D6944EA850424F40064CD69DF
:100EB80044EAC50444608261CA6882630362002010
:100EC80030BC7047002C014030B4036A23F48073AF
:100ED8000362036A4468C26922F4803222F0730212
:100EE8000D682A4323F400730D6943EA052323F4AC
:100EF80080734D6843EA0523174DA8420FD005F5C6
:100F08000065A8420BD005F54065A84207D005F555
:100F18008065A84203D005F58065A84213D123F463
:100F280000634D6943EA852323F480638D6843EAAF
:100F3800852324F480548D6944EA051424F400546C
:100F4800CD6944EA45144460C261CA68C263036259
:100F5800002030BC704700BF002C014030B4036A49
:100F680023F480530362036A4468C26922F08072E2
:100F780022F4E6420D6842EA052223F400530D6983
:100F880043EA053323F480534D6843EA0533174D8C
:100F9800A8420FD005F50065A8420BD005F54065BD
:100FA800A84207D005F58065A84203D005F58065FD
:100FB800A84213D123F400434D6943EA853323F44F
:100FC80080438D6843EA853324F480448D6944EA7C
:100FD800851424F40044CD6944EAC5144460C26110
:100FE800CA6802640362002030BC7047002C0140CC
:100FF80030B4036A23F480330362036A026D22F477
:10100800803222F070020C68224323F400330C690A
:1010180043EA044323F480334C6843EA0443114C05
:10102800A0420FD004F50064A0420BD004F5406440
:10103800A04207D004F58064A04203D004F5806480
:10104800A04206D1446824F480348D6944EA05241A
:1010580044600265CA68816C82640362002030BC07
:10106800704700BF002C014030B4036A23F480139A
:101078000362036A026D22F0807222F4E0420C6877
:1010880042EA042223F400130C6943EA045323F4CC
:1010980080134C6843EA0453104CA0420FD004F567
:1010A8000064A0420BD004F54064A04207D004F5C8
:1010B8008064A04203D004F58064A04206D144684D
:1010C80024F480248D6944EA852444600265CA6852
:1010D800C2640362002030BC704700BF002C01408E
:1010E80003682C4A90420ED0B0F1804F0BD0A2F585
:1010F8009432904207D002F58062904203D002F504
:101108009632904203D123F070034A681343214A70
:1011180090421AD0B0F1804F17D0A2F59432904285
:1011280013D002F5806290420FD002F596329042B9
:101138000BD002F54062904207D002F580629042DF
:1011480003D002F58062904203D123F44073CA6849
:10115800134303608B68C3620B8883620D4B98420C
:101168000FD003F5006398420BD003F54063984213
:1011780007D003F58063984203D003F58063984253
:1011880001D10B690363436943F001034361002004
:10119800704700BF002C014008B50B461146B3F557
:1011A800805F1DD00ED8102B17D0B3F5807F02D1E9
:1011B800FFF78AFE05E0012B02D1FFF7F5FD00E0FD
:1011C800012008BDB3F5803F0DD0B3F5801F02D1D3
:1011D800FFF74AFFF5E70120F3E7FFF72BFEF0E7FB
:1011E800FFF7BCFEEDE7FFF703FFEAE70B7B8A6832
:1011F800134323F480634A68134323F400630A68A3
:10120800134323F48053CA89134323F400530A6910
:10121800134323F48043CA6A134323F4004313435C
:10122800144A904203D002F50062904207D123F499
:1012380070234A69134323F080538A6913430D4A84
:10124800904203D002F5006290420FD123F470035C
:101258004A6A134323F08073CA69134323F0007367
:101268000A6A134323F000538A6A13434364002035
:10127800704700BF002C014038B5036813F0010F18
:101288006DD104460D460368364A1A408B680969D1
:101298000B4369690B43E9690B4313430360EB682C
:1012A800426822F4405213434360AB69826822F4D7
:1012B8004072134383602C4B984210D02B4B9842BA
:1012C80016D02B4B984217D02A4B984218D00120A1
:1012D800E26A22F00F022B881343E36238BD032031
:1012E800FFF7A0FC002838D06A686AB90120EFE748
:1012F8000C20FFF797FCF5E73020FFF793FCF1E7A8
:10130800C020FFF71DFDEDE72B68E9690B2B0FD80F
:1013180072B1B1F5004F0DD0DBB2174951F8233047
:10132800B0FBF3F303EB5203B3FBF2F39BB2E360BE
:101338000020CDE7DBB2104951F82330B0FBF3F0C1
:10134800530803EB4000B0FBF2F34FF6F0721A407B
:10135800C3F342031343E360EAE70120B8E701203F
:10136800BCE700BFF369FFEF0038014000440040CC
:1013780000480040004C0040C88A000882B0094B71
:101388001B680193019BB0F1FF3F00D0013030B1E1
:10139800044B1B6813F4803FF9D00138F7E702B01B
:1013A800704700BF10E000E0014B1860704700BFB5
:1013B800581E0020C0887047C388408803FB00F08F
:1013C800000C704770B584B00191029103880CB28B
:1013D8000D1405FB05F203FB03F3468806FB06F034
:1013E80004FB04218B420CDA824214DD002D1CDB45
:1013F800181A04F00BFD002C19DBADF80800ADF845
:101408000A60029B00209AB262F30F001B0C63F380
:101418001F4004B070BD981A04F0F8FC002C01DBE2
:101428002E46EAE740422E46E7E77642E0E74042AA
:10143800E3E701604260836000238373C3737047EE
:1014480010B5044600221146406801F04BFDB4F97E
:101458001410606801F03EFD0421206801F03BF89B
:1014680000221146206801F03BF8E28AB4F9121014
:10147800206801F035F8E28A238A03FB02F3044A64
:10148800A2FB0323C3F38F130133A38110BD00BF55
:10149800D34D6210838993B110B50446013B9BB2CA
:1014A80083810BB1002010BDB0F91410037E91FBAD
:1014B800F3F1806800F010F90120A073F3E7012030
:1014C8007047807B7047C173704710B4026A136815
:1014D80043F40063136000235362B0F86E404FF08A
:1014E800FF31B1FBF4F18166B0F86C1001EB8101BA
:1014F8004900416290F87640916921F0F00141EA93
:101508000411916190F87640916921F4704141EAA3
:10151800043191616FF001011161D16841F001015D
:10152800D160116841F00101116090F87440A34244
:1015380007D203F10A02002140F822100133DBB27E
:10154800F5E75DF8044B7047002390F874209A4241
:1015580007D903F10A02002140F822100133DBB257
:10156800F3E7012380F8753070470246036A596A29
:1015780089B2836E03FB01F31814B2F90610D08008
:1015880050781B0C10FB03F000B290805B1A916836
:1015980001FA83F393607047F8B5036A90F87450C2
:1015A800DA6822F00102DA605E6AB0F870201FFA89
:1015B80082FC0022A0F870201C6804F01004F20FCE
:1015C800002E02DA6FF001071F61DF6847F001079C
:1015D800DF6026F0004602EB0C03B3F5006F02D97A
:1015E800012380F87830C4B1B0F87240341B6244EB
:1015F800B0F86E7090F8773007FB12420A3340F863
:10160800232000231A46AB4215D203F10A0450F8EE
:10161800244022440133DBB2F5E7B0F87240341BB2
:101628006244B0F86E7090F8773007FB02420A33D4
:1016380040F82320E5E7436A02FB03F2B0F86E4066
:1016480090F8743003FB04F30BB192FBF3F213B27E
:101658000B808489121B4282838190F877300A3389
:1016680050F82320B0F86C3003FB02F2437803FBF8
:1016780002F3B0F86E2093FBF2F3C26903FB02F3A6
:10168800428B93FBF2F3C3814FF6FE739E4201D85F
:10169800B6B201E04FF6FF76A0F8726090F87730A6
:1016A8000133DBB280F8773090F87730DBB290F80E
:1016B8007420934202D3002380F8773090F8783072
:1016C80033B1002380F87530C27802701846F8BD2F
:1016D80000F09DFEFBE7000030B4056AC180427847
:1016E8008CB202FB01F2828000290BDBB0F86E306D
:1016F80003FB04F3054AA2FB0323C3F3CF336B6256
:1017080030BC7047631E9CB2F0E700BF01800080C8
:10171800B0F870309BB201339BB2A0F87030002053
:10172800704710B4846AC460C46A0461046B44617D
:1017380081610262C3615DF8044B70470023038036
:101748004380704730B583B004460191104600F0DD
:10175800B0FE00F056FE0546A069FFF72BFEC0F369
:101768004F01012846D9BDF9063003FB05F3002BCC
:1017780018DBDB13E06803FB00F393FBF1F062690D
:1017880002FB05F393FBF1F31B0103EB4003B4F9F0
:1017980008201344B3F5004F08DA13F5004F07DCAF
:1017A800164B05E003F5FF437F33E2E747F6FF7387
:1017B8002380BDF9040000FB05F0002811DBC013ED
:1017C800236900FB03F090FBF1F0B4F90A30A3EBB6
:1017D8004000B0F5004F08DA10F5004F07DC074865
:1017E80005E000F5FF407F30E9E747F6FF706080CD
:1017F80003B030BD002323806380F9E70180FFFF39
:1018080084B00B4601914160B0F9001001FA83F1F0
:10181800B1F5004F04DA11F5004F03DC104901E07F
:1018280047F6FF71ADF80810BDF90630B0F902208F
:101838001344B3F5004F04DA13F5004F03DC084BEB
:1018480001E047F6FF73ADF80A30029B00209AB218
:1018580062F30F001B0C63F31F4004B0704700BF16
:101868000180FFFF10B4838C591EB0F90820B0F92D
:10187800043001FB0232848E22410281B0F90A3021
:10188800B0F9062001FB0323234143815DF8044B93
:10189800704738B504460025058145812946C06949
:1018A80000F0BDFA2946206A00F0B9FA38BD82B0C6
:1018B800036800209AB262F30F001B0C63F31F4009
:1018C80002B0704782B0836800209AB262F30F00BA
:1018D8001B0C63F31F4002B070470000F0B583B0E3
:1018E800044641680A8822F007039BB202F47F404D
:1018F800B0F5807F3AD00026013A02F0070202EBE9
:1019080082025D4D05EBC205A089023880B2A08134
:101918000231616022689289013A1FFA82FC12B290
:101928000027E781382B25D8382B00F2A180DFE883
:1019380003F0419F9F9F9F9F9F9F489F9F9F9F9FAF
:101948009F9F4D9F9F9F9F9F9F9F529F9F9F9F9F3E
:101958009F9F599F9F9F9F9F9F9F5E9F9F9F9F9F16
:101968009F9F6A9F9F9F9F9F9F9F7A00C3F3C40674
:101978000346C1E7702B60D006D9B3F5807F10D13C
:10198800012E6BD90D200DE0482B51D0682B06D1C4
:10199800A368009304F10E0303F0B6FF02E00220EF
:1019A80000E00220A268E389D054E3890133E3818F
:1019B80003B0F0BD0423E381A36801221A7000205C
:1019C800F0E76146204606F0B9FAEBE761462046A3
:1019D80006F0FDFAE6E7284604F06AF880F0010010
:1019E800C0B2DFE7284604F07CF80020DAE7284692
:1019F80004F057F8062801D00020D3E7284604F061
:101A0800D9F80020CEE7284604F04BF830B928462C
:101A180004F04EF880F00100C0B2C3E7284604F095
:101A280060F80020BEE7284604F07AF80020B9E7FD
:101A3800284604F024F90020B4E7204604F031F8E1
:101A480018B10A2801D00020ACE74FF4C0520B4966
:101A58000B4B586906F0ACFF0020A3E7094B53F87D
:101A680026503DB1A368009304F10E03A84799E7F7
:101A7800022097E70D2095E74C30002062050020F2
:101A8800E01D00209C30002038B50446002380F873
:101A98002930038B5BB1426990F82A10D152006853
:101AA8004568228B0232092392B26169A847002354
:101AB800238384F82A30E37784F8223038BD000085
:101AC80038B50446C37F90F82220934202D00133F0
:101AD800C37738BD0023C377038BABB9014651F8F0
:101AE800140B03680922984770B163694F4A12685A
:101AF8001A6004232383002384F8203094F82930C3
:101B080094F82A20934209D1238B002B44D0A28B2E
:101B1800934241D86169194400232EE084F82A30A1
:101B280094F8232084F8242094F8273084F8283067
:101B380094F8211084F8221094F8251084F82610BF
:101B4800618BA1831A4492006168A068FEF7A8FB24
:101B580094F8232094F827301A44E1682069FEF7A6
:101B68009FFBD1E7A26852F82320128821F8022BA4
:101B7800228B023222830133DBB294F824209A426A
:101B8800F0D894F82630FD2B06D894F820108B4214
:101B98001AD0013184F82010228BA38B9A4298D94D
:101BA80094F82630FE2B28D06269238B94F82A10EB
:101BB800D15220684568228B0232092392B26169AA
:101BC800A8470023238384E7002384F8203094F86F
:101BD800283094F824100B449A42DDDA6169238B8B
:101BE800A06850F822000068C850238B2169895CDE
:101BF8000B4423830132D2B2E9E794F8243094F8F5
:101C0800282094F824100A449342CDDA6169228B83
:101C1800A06850F8230000688850228B2169C95CAD
:101C28000A4422830133DBB2E9E700BF7C1E0020AF
:101C380038B5038B9BB1044690F82630FE2B0FD0A5
:101C48006269238B94F82A10D15220684568228B48
:101C58000232092392B26169A8470023238338BD61
:101C680090F8243094F8282094F824100A449342D9
:101C7800E6DA6169228BA06850F823000068885072
:101C8800228B2169C95C0A4422830133DBB2E9E76C
:101C98002DE9F04704460F88BFB10368DB89BB42D2
:101CA80053D38B7880F82130CB7880F823300A79A9
:101CB80080F825204A7980F827208E1D1344827FDA
:101CC800934208DC0025A84616E0FFF7DDFE002554
:101CD8002846BDE8F0870A25FAE7504606F0A4F939
:101CE800E36803F809000236E36813F8093043444F
:101CF8001FFA83F80135EDB294F8233094F82720C1
:101D080013449D420EDAB6F800A06168A94601EBBB
:101D18008501504606F098F994F82330AB42DCD997
:101D28000220DDE708F106039F4210D3A7EB08075E
:101D3800BFB2023F6783357884F829500DB100257A
:101D4800C6E72046FFF7A0FEC2E70925C0E7092538
:101D5800BEE7038A428B934204D8828B934203D313
:101D6800C08A70470820704700207047002303820C
:101D7800704710B50446037823B10023C382438A11
:101D8800038210BD043006F01BFA84F826002046B2
:101D9800FFF7ECFFF5E710B5044603781BB1002305
:101DA800C382E08A10BD90F8260006F0A1FA4FF62B
:101DB800FF73984207D0228B511E238A01FB030030
:101DC800B0FBF2F020822046FFF7C3FFE082E8E78D
:101DD80003785BB9038A026A9B1AB0F91E2003FBD9
:101DE80002F3808C00EB234000B27047808AFBE747
:101DF800B0F900308380B0F90230C380B0F92030E8
:101E08004384002383608362704781807047C18068
:101E18007047B0F904007047B0F906007047816058
:101E28007047808B70478183012303FA01F1018396
:101E38007047408B7047C08B704701617047C16025
:101E48007047000038B505460C4601238B40C18316
:101E5800438347F6FF71A140FFF7F1FF0249A14014
:101E68002846FFF7EAFF38BD0180FFFF418470472D
:101E7800B0F922007047C08C7047C184012303FA6F
:101E880001F181847047000070B4B0F91440B0F9D2
:101E98001660B0F9042001FB02F2B0F906508DB9C2
:101EA80000238360838B1A418168C38B41FA03F353
:101EB800134422469C4223DAE31A0B44836010B28F
:101EC80070BC704701FB05F183685D1806D4002BD0
:101ED8000BDBC368AB420CDA8360E3E7002BF8DD69
:101EE8000029F6DD6FF00045F3E70029F1DA084D27
:101EF800EFE70369AB4201DD8360D3E78560D1E793
:101F080032469E4201DDF31AD7E71A460023D4E78A
:101F18000100008030B482B001468468E06802465F
:101F280005460190D4F8160012B204B22D14031419
:101F380003FB05F304FB0233002B09DBB1F9002096
:101F4800C2EB234302EB23130B8002B030BC704773
:101F580003F57F43FF33F1E700230380704738B56B
:101F68000446B0F90050C068FFF726FA00FB05F3F5
:101F780000EE103AB8EEC00AD4ED017A20EE270A36
:101F880038BD00001D4B9B6D13F0010F16D182B0B8
:101F98001A4B9A6D42F001029A659A6D02F001029D
:101FA8000192019A4FF080414A6942F001024A6168
:101FB8009A6D22F001029A6502B070474FF0804393
:101FC800596821F07D4121F47F0121F47F4121F0FE
:101FD8008F015A6822F0007222F0700242F020024B
:101FE8005A605A6942F001025A615A6822F0007236
:101FF80022F070020A435A60704700BF0010024086
:1020080030B4551C6D086D016FF0020202610024A6
:102018001A78D2B20F2A10D8026912F0020FF7D03C
:102028006FF0020202610134A4B2A542F0D81A7816
:10203800D2B20F2AECD801230B8030BC7047418BF9
:10204800038C194449080023028B9A4205D9426A35
:1020580022F8131001339BB2F6E78180C180002378
:1020680080F82930704710B504460C3006F0A8F8FF
:1020780084F82A002046FFF7E2FF10BD438B828BCD
:1020880093420CD010B4C188048CA1421BD3847F26
:102098007CB98A421BD901238377002014E0C288C7
:1020A80093420ED3038C9A4201D300207047042038
:1020B80070478B4201D3002006E00023837702207B
:1020C80002E00220704704205DF8044B70470220AC
:1020D800FAE738B5044690F82A0006F009F94FF6F1
:1020E800FF7398421DD0636A94F8292023F81200E0
:1020F80000231946228BD5B29D4206D9626A32F86E
:10210800132011440133DBB2F4E7B1FBF2F1E180B3
:10211800A08094F82930013A934207D2013384F819
:1021280029302046FFF7AAFF208138BD002384F814
:102138002930F6E7002383604360C360036101230D
:10214800436170478368C268012A08D901690B4452
:10215800013AC2608360406993FBF0F07047012A3E
:10216800F8D14268436903FB02F30022C260F1E739
:10217800C3680BB10020704701207047021E0ADBBC
:1021880001201F2809D84FF00043C3409A4204D2C7
:102198000130C0B2F5E75242F2E70138012303FAF1
:1021A80000F070472DE9F04704460F4681684369FF
:1021B80091FBF3F862B93846FFF7E0FF606107FB6F
:1021C80000F0A0600023E36023610120BDE8F087F0
:1021D8001546A7EB08063046FFF7D0FF8246404673
:1021E800FFF7CCFF81463846FFF7C8FFCA4516D22D
:1021F800824500D25046606108FB00F2A260676029
:10220800226805FB02F5084AA2FB0535AD09013530
:10221800E56000FB06F393FBF5F52561D5E78145FD
:10222800E9D24846E7E700BFD34D621010B400F189
:102238000C048166C2660367019B4367002380F82C
:10224800543080F855302CB1042B03D8A4680133DE
:10225800DBB2F8E79BB15A1E02EB420200EB8202A6
:102268000021516180F848300288642303FB02F39F
:10227800044AA2FB0323C3F3871380F856305DF8A2
:10228800044B7047D34D62102DE9F04104460D46CA
:10229800C76ED0F86880C180002680F8556080F845
:1022A800586080F8536080F85460384600F065FD47
:1022B8000421404600F00FF96188ADB211FB05F129
:1022C80009B2384600F006FE32463146404600F074
:1022D80007F9218A15FB01F1A28909B2404600F0ED
:1022E800FFF8E18915FB01F1A28909B2384600F02F
:1022F800F9FDA289238803FB02F3064AA2FB032304
:10230800C3F38F130133A3806369A36084F8576014
:10231800BDE8F081D34D621010B5044683880BB137
:10232800013B8380A3884BBBA3684BB39988E288A1
:1023380011FB02F11A8809B2A06E00F0D1F8A36867
:102348005988E28811FB02F11A8809B2E06E00F0A0
:10235800C9FDA2681188238803FB01F30949A1FB81
:102368000313C3F38F130133A3809368A36094F816
:102378005830013384F85830012000E0012010BDA6
:102388000020FCE7D34D621090F8582090F84930AF
:102398009A4201D2002070470120704710B4B2F968
:1023A800044001EB410300EB83031C82B2F90240B5
:1023B800DC81138801EB410100EB81018B81012055
:1023C8005DF8044B704790F84800704710B401EB73
:1023D800410300EB8303B3F910409480B3F90E3046
:1023E800538001EB410100EB81018B8913800120AF
:1023F8005DF8044B7047B0F904007047B0F90C0061
:102408007047B0F90E007047B0F91000704730B44B
:102418000346C0781C78B1F90020002A1BDB92B271
:10242800998A91421BD30021DD8A954200D9012166
:10243800B3F91220002A14DB92B21D8B954200D307
:1024480099B1A04201D90134E4B2844211D00120EB
:102458001C7030BC704792B2524292B2E0E7012140
:10246800E2E792B2524292B2E7E7A042EDD90024E5
:10247800EBE70020ECE7B0F90C30C3EBC333B0F95D
:10248800140093FBF0F000B270470161426190F8CC
:102498002A300370B0F92C301B044360B0F92E3099
:1024A8001B04836000234380C360836170474161DC
:1024B80070474069704708B50378032B00D008BD02
:1024C80000210069FFF7ABFCF9E7B0F90600704797
:1024D800B0F90A00704701700023C360704700001C
:1024E80070B504460D4616460178042911D0B0F996
:1024F8000610C38B9D423BDCB0F92430AB4239DC7B
:10250800038C9D4214DAB0F92230AB4234DB01204F
:102518000FE0FFF7DDFF0146E38C9D4206DC01205A
:10252800B4F92830AB4221DC18B302E00020F7E709
:1025380001205EB92378032B05D02D04A560002364
:10254800E360A36115E02D046560F8E76580A38B5F
:1025580006FB03F3094AA2FB03239B090133E3604B
:102568006D1A2D0495FBF3F5A56102E0002000E04B
:10257800002070BD0020FCE70020FAE7D34D621070
:10258800F0B583B005460E4617460278032A10D0E8
:10259800042A22D01B04484C84FB03241C44DB1768
:1025A800C3EB2423A3F50044444BB3F90E30234472
:1025B80027E0CA19C18B8A4275DC5242B0F924104F
:1025C8008A4272DBF21B018C8A42E3DABA1BB0F949
:1025D80022108A42DEDD00204DE0CA19C18C8A42F1
:1025E80065DC5242B0F92800824262DBF21B90425D
:1025F800D0DDBA1B9142CDDA00203CE0A3F57F4341
:10260800FF3BB3F5004FF9DA02E003F57F43FF33F0
:1026180013F5004FF9DB1CB2204603F06DFB019067
:1026280000B22B78032B28D000FB07F7002F36DBEE
:1026380006EB27473B04AB603AB20221204801F081
:1026480029FF204B5F6A3FB21D4E224601213046CA
:1026580001F020FF194B9B68B3F900200321304695
:1026680001F018FF3A460421304601F013FF002319
:10267800EB60AB61012003B0F0BD00FB07F7002F52
:1026880009DB06EB27473B046B603AB202210C4892
:1026980001F000FFD5E707F57F47FF37F1E707F5BA
:1026A8007F47FF37C4E70020E5E70020E3E7002085
:1026B800E1E70020DFE700BFB7600BB68801002024
:1026C80054050020000800400023C3608361704760
:1026D80070B504460278042A0CD04568E368012BDB
:1026E8000AD9A1690D44013BE360032A0CD0A56017
:1026F800281470BD8568F1E7012BF6D1B4F90250B2
:102708002D040023E360F0E72E146069FFF776FEDE
:10271800311A09B22069FFF7B7FB65600304A360AB
:10272800E7E782B0B0F92E30ADF80030B0F93030BC
:10273800ADF80230009B00209AB262F30F001B0C28
:1027480063F31F4002B0704710B504464069FFF7B5
:1027580055FE0004606010BD10B490F80E410023CF
:10276800A34208D203F1380200EB42020021918013
:102778000133DBB2F4E7002380F8F430A0F80C3121
:102788005DF8044B7047002800F0F3802DE9F04F06
:102798008BB00446002900F0EE80826EB0F92E302E
:1027A800C3EBC330824240F3C380A066A26EB4F884
:1027B8001E5142FA05F601960FFA86F9E66EB04206
:1027C80080F2BD80E066E36E02932B4103930FFA1B
:1027D80083F8256EB4F92C30C3EBC330854240F33F
:1027E800B5802066656EA84280F2B7806066206E6C
:1027F800B4F81C5140FA05F30FFA83FA8E889B1B34
:102808001BB2666E46FA05F52EB20496CE88AD1B4D
:102818002DB205950F89B1F9005005FB07F52E1467
:10282800B1F902E00EFB07F739140691B4F920E07C
:102838000AFB1E05B4F922C003FB0C55B4F92800A5
:1028480006FB0055B4F9247009FB17510791B4F938
:10285800261001FB0323628E48FA02F6B4F92AB067
:1028680006FB0BF6B4F90EA006FB0A36049B1D46C0
:10287800636E05FB1E3E059B03FB0CEE069D05FBE8
:1028880000EE08FB17E7029803FB010149FA02F280
:1028980002FB0BFB0BFB1A1BA4F87090A4F87280C8
:1028A80094F9240118B9BAF1000F5DDB012080B258
:1028B800019B13FB00F80FFA88F8039B13FB00F049
:1028C80080B240420FFA80F9B4F9040003F014FA18
:1028D800011401FB08F100B200FB09F040F3CF300E
:1028E80041F3CF31411A04F13400FFF7CDFA2082C9
:1028F80094F8F4300133DBB294F80E21934236D0C9
:1029080003F1380204EB4202B2F90410A4F80C11E6
:10291800908084F8F430A388184400B2A080079B04
:102928002366A6666766C4F86CB00BB0BDE8F08F86
:10293800A3EBC335AA423FF739AFA56636E7A3EB49
:10294800C3339E423FF73FAFE3663CE7A3EBC33692
:10295800B5423FF747AF266644E7A3EBC3339D4232
:102968003FF745AF636642E74FF0FF309FE700232C
:10297800C6E7002070470020D7E72DE9F84F90F808
:102988000E5100231A46AB4209D203F1380400EB7A
:102998004404B4F9044022440133DBB2F3E70DB137
:1029A80092FBF5F200231E460AE003F1380400EB1F
:1029B8004404B4F90440A41A04FB04660133DBB2EE
:1029C800AB42F2D396FBF5F602FB02F44FEAE47B46
:1029D800B0F81081A4FB084508FB0B5523462F4689
:1029E800002C75F1000C44DBDB0943EA47639E4287
:1029F80044DB0025438B02FB03F3827803FB02F3DD
:102A0800C26993FBF2F3427893FBF2F31AB20A809D
:102A1800828180F8F55090F80421002A55D0002BC7
:102A2800B8BF5B42B0F81A419C422EDDB0F9706025
:102A3800B0F9724004FB04F406FB0646C3EBC3334B
:102A4800B0F9144093FBF4F390F8194103FB04F434
:102A5800002C15DBA41104FB03F31C46002B11DB2F
:102A6800A41190F8187107FB1434A64210DC002258
:102A78000EE014F17F0345F10007B5E70125B9E73A
:102A88003F34E7E703F13F04EAE70022134616461E
:102A980080F8F920C0F8FC60C0F8003190F8F830F0
:102AA800ABB105B1CAB990F8F7300133DBB280F8A1
:102AB800F73090F8172193420CD3002380F8F730B1
:102AC800C27802701846BDE8F88F0122E6E7FFF7E2
:102AD8009EFCF8E7FFF79BFCF5E7002380F8F7304A
:102AE800FFF795FCEFE770B490F8F410D0F80841C0
:102AF80090F80F2190F80E311DB29EB29B1A9BB22E
:102B08008BB9383100EB4101B1F904302344B0F9F5
:102B18000C219B1AB0F8202143FA02F2C281C0F8B6
:102B2800083170BC70470B449AB21BB29D4201DC5D
:102B3800931B1BB2383100EB4101B1F90420224448
:102B4800383300EB4303B3F90430D31AE2E738B55E
:102B580004460025056645668566C5668580C58187
:102B680080F8F65080F8F75080F8F85080F8F9505F
:102B7800C0F8FC50C0F80051C0F8085180F8225144
:102B880080F82351FFF7E8FD294604F13400FFF7E8
:102B980046F938BD10B5044690F8163180F8F6307D
:102BA800012180F8041100234386B0F92E00114B4F
:102BB80093FBF0F31BB23BB103EBD3735B104900FB
:102BC800628E01326286F6E709B2218601FB00F1C6
:102BD800094B83FB0123C917C1EB232161852046DB
:102BE800FFF7B5FF04F13400FFF702F90023638211
:102BF80010BD00BF5EEA0F00C58D4806034690F879
:102C0800232112B1B0F90C200A8093F8220128B1CF
:102C1800012283F8F82000221A707047F0B4B3F943
:102C28000C40B1F9002002FB04F5002D4DDD002C0D
:102C380030DB002A31DBB1F9005093F8121101FBA7
:102C480005F100292DDB41F30F1193F8132102FB45
:102C580005F2002A27DB42F30F1293F8F55085B3EB
:102C6800B3F81471A6B2B74227D2944221DB8C4242
:102C78001BDC93F8F6200132D2B283F8F62093F8E1
:102C880016118A4221D3012283F8F82000221A70F3
:102C980028461AE0644224B2CBE792B252420A8034
:102CA800C9E70F31CFE70F32D5E7002283F8F620C6
:102CB8000BE0002283F8F62007E0002283F8F620D4
:102CC80003E0002283F8F6202846F0BC704782B063
:102CD800B0F97030ADF80030B0F97230ADF80230AC
:102CE800009B00209AB262F30F001B0C63F31F4095
:102CF80002B0704782B0026EB0F81C110A41ADF8FC
:102D08000020436E0B41ADF80230009B00209AB2C0
:102D180062F30F001B0C63F31F4002B07047B0F959
:102D280022300B80B0F92630138070474184C2846A
:102D3800704708B5006800213430FFF770F808BD07
:102D480008B500213430FFF76AF808BDD0F8000153
:102D58007047D0F8FC007047036893F8F500704797
:102D68000368012283F8222170470368012283F84F
:102D78002321704780F82411704700230370838053
:102D8800C3808381C38143820362436203850386D0
:102D980080F82C3080F82D30B0F93620C28580F8C4
:102DA800323080F83330704708B5FFF7E6FF08BDCA
:102DB800034690F833201AB1B1F9000098807047A3
:102DC80070B4B0F90E40008E10FA84F086B200B2EA
:102DD80018865A7894FBF2F2DD882A44DA8093F850
:102DE8002C204AB1B3F92E204AB9B1F900000122CA
:102DF80083F82D2000221A70988070BC7047013A21
:102E080012B2DA85002C15DB0C88A61B36B2012518
:102E180002FB06F2B3F9364092FBF4F212FB05F21C
:102E280092B2002E0CDB012083F832000888821A47
:102E380010B2E1E70C88361B36B24FF0FF35E7E7F2
:102E480093F83240002CD7D00888024410B2D3E758
:102E580010B50346028D012A1DD9026A406A104442
:102E680058620014D8815A8B02FB00F202EB8202EE
:102E78005200DC69587800FB04F092FBF0F212B2C1
:102E88000A809A811A8D013A1A8593F82D00E8B9BB
:102E9800DA781A7010BD012A03D0B0F90C200A8024
:102EA800F3E7B0F92A0008809881DA6902FB00F29A
:102EB800588B00EB8000400092FBF0F212B2587879
:102EC80012FB00F2DA8100221A85DEE71846FFF7C6
:102ED8009EFADFE70186437891FBF3F3C380818094
:102EE8007047000090F82C30002B3BD192B98181BB
:102EF800C36903FB01F3428B02EB8202520093FB8E
:102F0800F2F31BB2427813FB02F3C381002303855B
:102F180041857047F0B4838E03FB02F2124BA3FB8A
:102F28000223C3F38F1301339BB20385B0F90E500C
:102F3800467895FBF6F7C26902FB01F2448B04EB75
:102F48008404640092FBF4F212B233B1D21B12046F
:102F580092FBF3F303FB06F3036241852D044562FC
:102F6800F0BC7047704700BFD34D621061B10122B9
:102F780080F82C20B0F9362042B9012380F82D3092
:102F880000230370184670470120704708467047B1
:102F980090F82D007047000082B0836823F020432A
:102FA80023F03F038360836813F0805F16D1836842
:102FB80023F0104323F03F0343F080538360244BF6
:102FC8001B689B09234AA2FB03239B095B0001930F
:102FD800019B1BB1019B013B0193F9E7836823F037
:102FE800404323F03F0343F0004383608368002B92
:102FF800FCDB036813F0010F08D1836823F000435A
:1030080023F03F0343F001038360F2E7836823F072
:10301800004323F03F0343F008038360836823F0F1
:10302800004323F03F0343F020038360C36823F089
:10303800004323F4001343F40013C360836823F0B0
:10304800004323F03F0343F00403836002B070475A
:10305800581E0020632D3E0582B04FF47A73019309
:10306800036823F001030360436823F0007323F02F
:1030780070034360836943F008038361836943F401
:1030880000638361C36943F00803C361C36943F400
:103098000063C361436943F001034361D1F8883099
:1030A80093F8C720022A11D091F86820B2B993F892
:1030B800C130012B3CD0032B10D10123036343699A
:1030C80043F0010343610323036307E093F8C82037
:1030D800012A20D0B1F87C30013B43626FF08003B5
:1030E8000361D1F8883093F8C23033B3026912F41F
:1030F800807200D00122019BFBB1012A1DD16FF41F
:1031080080730361019B013B0193036913F480738E
:10311800F1D11A46EFE793F8C130032BDAD1012336
:103128000363436943F00103436103230363D1E766
:10313800B1F87C30013B4362D0E7C36843F08003B9
:10314800C360036A43F4AA6343F00503036202B051
:103158007047002900F0A08070B40B46D0F8882092
:10316800956890F86A1001F1120402EB840464680F
:10317800D4F8806001F1180402EB84025268D2F896
:1031880080406A6822F0007222F070026A600529A5
:1031980014D8DFE801F0355B5B030335026F961B3B
:1031A80016F5004F1ADC48F201021A80426F141B10
:1031B80014F5004F1BDC48F201025A80B3F90020D5
:1031C800A0F85020B3F90220A0F852201B8892B230
:1031D8005B429B1AA0F8543070BC7047B6F5004F9C
:1031E80003DB47F6FF721A80E0E71E80DEE7B4F5DE
:1031F800004F03DB47F6FF725A80DFE75C80DDE7AC
:10320800426F961B16F5004F0EDC48F201025A80F9
:10321800826FA41AB3F90220A41AB4F5004F0CDB8C
:1032280047F6FF721A80C9E7B6F5004F03DB47F689
:10323800FF725A80ECE75E80EAE714F5004F03DC82
:1032480048F201021A80B9E71C80B7E7026F961BA3
:1032580016F5004F0EDC48F201021A80826FA41A9C
:10326800B3F90020A41AB4F5004F0CDB47F6FF723F
:103278005A80A3E7B6F5004F03DB47F6FF721A80C2
:10328800ECE71E80EAE714F5004F03DC48F2010280
:103298005A8093E75C8091E77047000090F881308E
:1032A80080F86A30B0F87C20013A92B2D0F88830C1
:1032B8009B68C18F5963B0F840109963B0F8421009
:1032C800D9631A645A68034B1A4201D00120704727
:1032D800002070477000000279B370B40C46D0F833
:1032E80088309D6890F8812002F1120103EB81017A
:1032F8004968D1F88010183203EB82035B68D3F871
:1033080080606B6823F0007323F070036B6090F8A3
:103318008030DBB20F2B0BD8026F0A440267436F71
:103328003344436790F880300133DBB280F8803053
:1033380000232380638070BC7047704731B310B49A
:103348000C46D0F88830996890F88120183203EB41
:1033580082035B68D3F880204B6823F0007323F066
:1033680070034B6090F88030DBB20F2B08D8836F66
:103378001344836790F880300133DBB280F88030E3
:103388000023238063805DF8044B7047704710B4B6
:10339800D0F888209368012480F86B4092686FF019
:1033A8000104146159639963D9631A6912F0010F12
:1033B800FBD05A6C42F400425A64D0F8883093F833
:1033C800C020022A02D05DF8044B70471A6AB3F88D
:1033D800AC309361D0F888305A6AB3F8AE30936154
:1033E800D0F888309A6AB3F8B0309361EBE710B43C
:1033F800D0F888309B68012280F88C20002280F861
:103408006B20B0F87C2052085A63B0F87C20520830
:103418009A63B0F87C205208DA63B0F87C20053A49
:103428001A646FF001021A611A6912F0010FFBD0D9
:103438006FF001021A615A6C42F480625A645A6C45
:1034480042F400425A64D0F8882092F8C010022949
:1034580009D06FF001021A61DA6842F00102DA60FD
:103468005DF8044B70471C6A40F255510C4210D06D
:10347800116AB2F8AC208A61D0F88820516AB2F893
:10348800AE208A61D0F88820916AB2F8B0208A61AB
:10349800DFE7116AB2F8AC208A62D0F88820516A56
:1034A800B2F8AE208A62D0F88820916AB2F8B020CB
:1034B8008A62CEE7D0F888309B68DA6822F0010289
:1034C800DA60002280F86B205A6C22F400425A64B9
:1034D80090F884202AB9D0F8882092F8C0100229E0
:1034E8000DD06FF001021A611A6912F0010FFBD0BA
:1034F8006FF001021A61002380F88C307047116A5E
:10350800B2F8AC208A62D0F88820516AB2F8AE20AE
:103518008A62D0F88820916AB2F8B0208A62E0E71F
:1035280030B482B001F10805030D9B0003F03C03A1
:10353800EC5824F47F4424F0F0041443EC504B6816
:1035480000F0030213434B600A6800F010000123E7
:1035580003FA00F030EA020310D00B681843086041
:103568000F4B1B680F4AA2FB0323DB0CDB00019304
:10357800019B93B1019B013B0193F9E7084B1B6841
:10358800084AA2FB0323DB0C03EB43030093009BD5
:103598001BB1009B013B0093F9E702B030BC7047B8
:1035A800581E002083DE1B4339B310B40C46D0F8F4
:1035B80088309A68536823F0007323F070035360CF
:1035C800436FD0F8882090F86A10183102EB810216
:1035D8005268D2F880209B1A084A934206DB47F6C5
:1035E800FE72934203DD47F6FF7300E0044B1BB203
:1035F800238063805DF8044B704770470280FFFFAB
:103608000180FFFFD0F888309B68012280F88C2069
:1036180000225A636FF001021A611A6912F0010F51
:10362800FBD05A6C42F400425A64D0F8883093F8C0
:10363800C020022A00D070471A6AB3F8AC309361F0
:10364800D0F888305A6AB3F8AE309362D0F8883030
:103658009A6AB3F8B0309362EDE700286BD030B4C3
:103668000246D0F888108B680C684868012182F8F7
:103678008C106FF001011961196911F0010FFBD06D
:103688006FF00101196101215963B2F87C10053905
:103698001964196911F0010FFBD0D96841F00101D3
:1036A800D960596C41F480615964596C41F4004106
:1036B8005964D2F8881091F8C050022D14D0032311
:1036C80082F86A30A36823F0004323F03F0343F0F5
:1036D8000803A360836823F0004323F03F0343F00B
:1036E8000803836030BC70471D6A40F255531D4281
:1036F80010D00B6AB1F8AC109961D2F88830596AC9
:10370800B3F8AE308B61D2F88830996AB3F8B0302C
:103718008B62D4E70B6AB1F8AC109962D2F88830A2
:10372800596AB3F8AE308B62D2F88830996AB3F828
:10373800B0308B62C3E77047002800F0DB802DE9CA
:10374800F04F85B00646D0F88830DA68D3F810B064
:10375800D3F814A0D3F81890D3F81C80D96A186B42
:103768000190586B0290986B03909F681C685D6885
:10377800636823F0040363604FF0040CC4F800C0CE
:10378800636823F020036360202020606B6823F0C7
:1037980004036B60C5F800C06B6823F020036B60FE
:1037A8002860554B9F4200F09F805448036943F4BA
:1037B8000053036172B1D068036843F001030360EA
:1037C8001069036843F001030360526A136843F009
:1037D80001031360BBF1000F17D0D6F8883093F8B7
:1037E800C320012A05D021B1B3F8BC20D86BFFF75C
:1037F80097FEDBF8003043F00103CBF80030DBF82C
:10380800003043F00043CBF80030BAF1000F18D075
:10381800D6F8883093F8C420012A06D0019921B13E
:10382800B3F8BC20186CFFF77BFEDAF8003043F0E1
:103838000103CAF80030DAF8003043F00043CAF850
:103848000030B9F1000F18D0D6F8883093F8C520A9
:10385800012A06D0029921B1B3F8BC20586CFFF7B1
:103868005FFED9F8003043F00103C9F80030D9F8F9
:10387800003043F00043C9F80030B8F1000F18D009
:10388800D6F8883093F8C620012A06D0039921B1CA
:10389800B3F8BE20986CFFF743FED8F8003043F029
:1038A8000103C8F80030D8F8003043F00043C8F8E6
:1038B8000030A36813F0010F08D12046FFF76CFB16
:1038C80040232360636843F040036360AB6813F0F0
:1038D800010F02D12846FFF75FFB31463846FFF754
:1038E800BBFB05B0BDE8F08F0448036943F40063EF
:1038F80003615FE7704700BF002C0140002004E02F
:103908000B6803674B6843678B688367012380F8FC
:103918006E307047036F0B60436F4B60836F8B6033
:1039280070470000F0B583B00446D0F888309D6831
:103938001F685E6890F86E30D3B1BB6823F000430F
:1039480023F03F0343F00803BB60B36823F0004350
:1039580023F03F0343F00803B3608023A0F87E30D0
:10396800042384F86A30002384F8843003B0F0BD5F
:1039780003680193436900930023036743678367E0
:1039880080F880302B6A23F4AA6323F005032B62A6
:10399800444B0360444B43618023A0F87E300423EA
:1039A80080F8813080F86A30FFF721FD6B6823F0DA
:1039B8007D4323F47F0323F47F4323F08F03702B8D
:1039C800F4D1BB6823F0004323F03F0343F008031E
:1039D800BB60B36823F0004323F03F0343F00803C0
:1039E800B36004F14406D4F8882004F180073B460C
:1039F80092F8C12031462846FEF702FB2046FFF721
:103A080059FD002384F88030284A226084F88130E8
:103A180084F86A302046FFF7EAFCD4F888203B4651
:103A280092F8C12031462846FEF7EAFA2046FFF709
:103A380041FD236F1B092367636F1B096367A36F2E
:103A48001B09A367012384F86E30019B2360009B48
:103A58006361AB6923F00803AB61AB6923F40063CE
:103A6800AB61EB6923F00803EB61B4F87C306B635E
:103A7800B4F87C30AB63B4F87C30EB63AB6943F0EB
:103A88000803AB61AB6943F40063AB61EB6943F0D6
:103A98000803EB612B6A43F4AA6343F005032B6226
:103AA8005EE700BFE1320008A53200084533000890
:103AB80000283ED070B40346B0F87C10B0F8462019
:103AC800881A80B2D3F88840B4F8B260B04215D9E9
:103AD800042283F86A204A1E92B2A168D88F4863EC
:103AE800B3F840008863B3F84230CB630A644A688D
:103AF800124B1A421FD0012070BC7047B3F84850CF
:103B0800551BADB2B5EB400F04D9B4F8B610521A34
:103B180092B2E2E7324492B29142DED84FF480701A
:103B2800A3F87E00490089B28A1A92B2013A92B289
:103B3800D3E7002070470020DEE700BF70000002D6
:103B48000246002864D030B4D0F888008568C4687C
:103B58006CB392F86A1001F1120300EB83035B68FF
:103B6800DB6C002BF5D101F10E0304EB83035868DD
:103B7800B0F1FF3F08D0023104EB810149680B68BE
:103B880023F4867303430B6092F86A1001F114035F
:103B980004EB83035868B0F1FF3F08D0083104EB09
:103BA800810461680B6823F4867303430B60D2F8C1
:103BB800883092F86A1001F11E0003EB800040681B
:103BC800B2F87E40123103EB810359682043C86480
:103BD800D2F8883092F86A1001F1240003EB8000D3
:103BE8004068B2F87E40183103EB810359682043DE
:103BF800C8646B6823F0007323F0700343F070030C
:103C08006B608023A2F87E3002F1680030BC7047F8
:103C180070470346F8B190F884202AB9D0F8882074
:103C280092F8C010022905D0012283F8822003F1FE
:103C380068007047116AB2F8AC208A62D0F8882010
:103C4800516AB2F8AE208A62D0F88820916AB2F838
:103C5800B0208A62E8E7704768B1D0F88820916898
:103C68004A6C42F480624A64012280F8832080F81A
:103C78008420683070477047034690F8832062B10B
:103C8800002280F88320022093F8822022B140F09D
:103C98004000002283F8822070470020F4E70000EB
:103CA800D0F888309B6890F86D206ABB03F1180142
:103CB8009A6922F4803222F0730242F060029A611B
:103CC8001A6A42F001021A621A6A22F004021A629F
:103CD80000225A63D0F8882092F8C020012A1FD009
:103CE800022A2ED04A6822F4803222F0730242F06F
:103CF80070024A601A6A22F480721A621A6A22F4FE
:103D080080621A62436F0367164B0360164B0361A8
:103D1800164B8360164B4360012380F86D30704763
:103D28009A6922F0807222F4E64242F480529A6143
:103D38001A6A22F010021A621A6A42F040021A62E3
:103D4800D0E79A6922F0807222F4E64242F40052E7
:103D58009A611A6A42F010021A621A6A22F0400244
:103D68001A62BFE7B13500080D360008633600084F
:103D7800BD340008D0F888309B6890F86D20002A80
:103D880054D003F118019A6922F4803222F07302A8
:103D980042F060029A611A6A42F001021A62D0F88F
:103DA800882092F8C020012A41D0022A44D0B0F8D5
:103DB8007C2052085A639A6922F0807222F4E64203
:103DC80042F4C0429A611A6A42F010021A62D0F8AC
:103DD800882092F8C020012A33D0022A36D0B0F8C1
:103DE8007C2052089A634A6822F4803222F07302D7
:103DF80042F060024A601A6A42F480721A62D0F88D
:103E0800882092F8C020012A25D0022A28D0B0F8AC
:103E18007C205208DA63154B0360154B0361154B80
:103E28008360154B4360002380F86D3070471A6A31
:103E380042F004021A62BAE71A6A22F004021A620D
:103E4800B5E71A6A42F040021A62C8E71A6A22F015
:103E580040021A62C3E71A6A42F480621A62D6E71D
:103E68001A6A22F480621A62D1E700BF5B31000847
:103E780097330008F7330008BD34000803460028CC
:103E88003AD0D0F888209268012083F88C00B3F8E3
:103E98007C0001FB00F1090CD987D16921F0807100
:103EA80021F4E64141F4E041D161B3F87C10B3F864
:103EB8006400091A1164B3F86610D163D98F51638D
:103EC800516821F0007121F0700141F070015160DA
:103ED800032183F86A105168084A114205D001206D
:103EE800B3F84420012A02D070470020F8E70021E7
:103EF800A3F84410104670470020F5E77000000250
:103F080010B40368DAB20A498C5CC3F30722624032
:103F18008C5CC3F3074262408A5CC3F303614A4086
:103F280004498A5C43EA027303605DF8044B7047F6
:103F3800088B0008F88A0008C2B2084B995CC0F3E5
:103F480007224A40995CC0F307424A409A5C82EAD9
:103F58001060185CB0FA80F040097047088B0008C0
:103F6800F8B504460D4616461F461046FFF7C8FF2B
:103F780072B6A26C72B162B6092D2AD00A2D38D059
:103F8800002D42D194F82400002840D1022384F85F
:103F9800243010E0092D0FD00A2D13D0032384F804
:103FA800243004F12003A36462B6A36D3A46314677
:103FB800606998470020F8BD236C03229A71236C2E
:103FC800A364F1E7032384F82E3004F12803A364E3
:103FD800EAE7236C1A68B24207D00320626C32B158
:103FE80002229A71236C9F80E5E70020F6E763645C
:103FF800F6E794F82E30012B01D00320DBE70223EB
:1040080084F82E30A7850020D5E70020D3E70320C9
:10401800D1E708B502460B0443EA012141F00F013C
:1040280042F8201F04230021FFF79AFF08BD10B5AE
:104038000446C36C40699847002384F8643084F8C8
:10404800653084F86030636D042204F11C016069F6
:10405800984710BD10B502460C790B78DB0143EA8E
:1040680004134C7843EA04238C7843EA8433C978F0
:1040780043EA415343F0050342F8203F042300215B
:10408800FFF76EFF10BD70B590F8605005F00105A0
:1040980090F8636006F00F064B0143EA011343EA08
:1040A800851343EAC51343EA062343EA023343F080
:1040B8000603024642F8203F04230021FFF750FF81
:1040C80070BD0A2A09D090F83630012B13D990F820
:1040D8003E20012A0FD90020704790F82E30012B7E
:1040E80001D900207047836A04330B60012380F8EC
:1040F8002E3018467047012B05D990F83E30012B19
:104108000CD901207047012380F8363000F13002C5
:104118000264026B04320A6018467047012380F873
:104128003E3000F138020264826B04320A6018469D
:104138007047F0B5C369C3F3021E017FC909457F03
:1041480005F03F05C3F3863CC3F3465390F86C2053
:104158008A4228BF0A4680F86C2090F86D40AC422D
:1041680028BF2C4680F86D4090F86E60664528BFE1
:10417800664680F86E6090F86F709F4228BF1F46B1
:1041880080F86F70914201D00020F0BDA5420FD891
:10419800B44501D00020F8E7BB4201D00020F4E785
:1041A80090F870309E4501D00020EEE70120ECE742
:1041B8000020EAE770B5144690F86420022A01D07E
:1041C800022070BD1D460A1F43EA041341F8043C4F
:1041D80090F86C30012B0BD00A2D03D1037C7BB1F6
:1041E800002303740434A3B22946FFF7B9FEE8E7B5
:1041F800CA230B55631CFE26CE540234A4B2EBE747
:104208000120DEE738B5044690F82430032B22D08D
:10421800836C00229A7194F82E30022B1FD094F8E8
:104228002430022B27D072B6636C002B38D0A364DD
:1042380003229A71A56D636C9A8819686069A8470A
:1042480094F83630022B21D094F83E30022B1DD042
:104258000023636422E0002380F82430DBE704F1C4
:104268002803A364A36DA28DA16A606998470323FC
:1042780084F82E3013E004F12001A164A36D042218
:1042880060699847032384F8243008E004F1300378
:1042980004F138021344626C9B1A636462B638BD39
:1042A8000023A364FAE738B50446C26900230B80EB
:1042B80090F86130002B00F08780002380F861308F
:1042C80090F86430012B35D0022B51D043B1002532
:1042D800636D042204F11C0160699847284638BDC3
:1042E800836E052B03D0062B1DD00025F0E7FFF7C2
:1042F80020FF88B194F86E3001335B01A38194F8F4
:104308006F309B01E38194F86D3001335B01A4F8B1
:104318005E30012384F8643004F16C012046FFF715
:1043280099FE0025D4E7C2F30F320021FFF7ABFE58
:104338000025CDE7836E052B03D0062B0ED0002574
:10434800C6E7FFF7F6FE10B9002384F8643004F1DD
:104358006C012046FFF77EFE0025B9E7C2F30F3255
:104368000121FFF790FE022384F864300025AFE7AF
:10437800836E052B05D0062B14D0092B18D00025E9
:10438800A6E7FFF7D6FE48B9002384F8643004F1A5
:104398006C012046FFF75EFE002599E7012384F8AB
:1043A8006430F4E7427F0121FFF76DFE00258FE7B7
:1043B80090F86030013380F8603001230374B0F85E
:1043C8005C300B80856983E790F8621009B9002595
:1043D80084E7FFF71EFE002584F86250236D6069AC
:1043E80098477BE738B5044690F8653013B1012B40
:1043F80037D038BDC069FFF79FFD70B3237F03F046
:104408000F03A366062B0AD9092B0AD1A38B1B0914
:10441800A4F85C304BB9012384F86130E9E7052B37
:1044280017D2012384F86230E3E7B4F85E209342A0
:104438000BD8656D94F86C2003EB4202A1696069A2
:10444800A847012384F86530D3E7022384F8623053
:10445800CFE7012384F86130CBE7042384F8623086
:10446800C7E7002380F86530012380F86130C0E792
:1044780008B5002380F86530436D042200F11C0163
:104488004069984708BD0000014BD3E90001704717
:10449800801E002041F61203C35C002B53D04B1E34
:1044A800DBB2022B51D8012909D0022914D00329E3
:1044B80020D004292CD0052938D000207047B0F925
:1044C8000430B3F5806F42D0591C8180043300EB6F
:1044D8004300C28000207047B0F90630B3F5806F02
:1044E80037D0591CC18003F2044300EB4300C2805B
:1044F80000207047B0F90830B3F5806F2BD0591CF5
:10450800018103F6040300EB4300C28000207047DA
:10451800B0F90A30B3F5806F1FD0591C418103F6FA
:10452800044300EB4300C28000207047B0F90C3010
:10453800B3F5806F13D0591C818103F6084320F826
:104548001320002070470320704701207047022085
:1045580070470220704702207047022070470220EF
:10456800704741F612030122C2540023838143811C
:104578000381C38083807047664BDA68C2F30222E6
:10458800C2F10703042B28BF0423111D062940F29A
:10459800B480D11E4FF0FF3202FA03F3DB4303F07D
:1045A80003038B408A40D24302F0010213431B01EC
:1045B800DBB2594A82F8263340235360554BDA68F8
:1045C800C2F30222C2F10703042B28BF04231946B1
:1045D800131D062B40F29380033A4FF0FF338B40B4
:1045E800DB4303F0030393401B01DBB24A4A82F822
:1045F8000B334FF400631360464BDA68C2F30222B0
:10460800C2F10703042B28BF0423111D062978D9FA
:10461800D11E4FF0FF3202FA03F3DB4303F0040329
:104628008B408A40D24302F0010213431B01DBB2E4
:10463800394A82F818334FF080731360354BD968C4
:10464800002182F819134FF000711160DA68C2F383
:104658000222C2F10703042B28BF04231946131DA5
:10466800062B50D9033A4FF0FF338B40DB4303F05E
:10467800020393401B01DBB2274A82F812334FF43E
:1046880080231360234BDA68C2F30222C2F10703C6
:10469800042B28BF04231946131D062B35D9033ACA
:1046A8004FF0FF338B40DB4303F0030393401B01C0
:1046B800DBB2194A82F81E334FF080431360154B62
:1046C800DA68C2F30222C2F10703042B28BF0423CD
:1046D8001946131D062B1AD9033A4FF0FF338B40A6
:1046E800DB4303F0030393401B01DBB20A4A82F861
:1046F80028334FF480735360704700214AE7002243
:104708006BE7002185E70022ADE70022C8E7002219
:10471800E3E700BF00ED00E000E100E082B0064BF7
:104728009A6C42F008029A649B6C03F008030193A8
:10473800019B02B0704700BF0010024082B00A4BD4
:104748009A6C42F004029A649A6C02F00402019294
:10475800019A9A6C42F001029A649B6C03F001037F
:104768000093009B02B070470010024070B588B0FB
:1047780000230693079303F1804303F50433DA6CAF
:1047880042F00402DA64DA6C02F004020492049A39
:10479800DA6C42F02002DA64DA6C02F0200203924A
:1047A800039ADA6C42F00102DA64DA6C02F0010270
:1047B8000292029ADA6C42F00202DA64DB6C03F0CD
:1047C80002030193019B574B1A6922F470624FF45C
:1047D800706393FAA3F3002B00F09880B3FA83F385
:1047E80003F01F03022101FA03F313434D4A136137
:1047F800126922F00F020F2393FAA3F3002B00F0A3
:104808008780B3FA83F303F01F03012505FA03F346
:104818001343444A13614FF4806405948DF81C5087
:1048280000268DF81D6002238DF81E3005A8FBF7C1
:10483800E3FF4FF4807305938DF81C508DF81D60CD
:104848008DF81E5005A8FBF7D7FF374BDB6894FAA5
:10485800A4F4002C5ED0B4FA84F46400032202FAB3
:1048680004F423EA04044FF4806393FAA3F32E4B71
:10487800DC60A3F58063DA684FF4807393FAA3F3DE
:10488800002B49D0B3FA83F35B00032101FA03F349
:1048980022EA03034FF4807292FAA2F2234AD36009
:1048A800214B1A684FF4806393FAA3F3002B35D099
:1048B800B3FA83F35B00032101FA03F322EA03034B
:1048C8004FF4806292FAA2F2174A1360174B1A68E3
:1048D8004FF4807393FAA3F313B3B3FA83F35B0033
:1048E800032101FA03F322EA03034FF4807292FAD8
:1048F800A2F20E4A13600E4BDB680E4B002283F8BF
:1049080017234FF400021A6008B070BD202367E730
:10491800202378E72024A0E72023B5E72023C9E750
:104928002023DCE70000014000080048000400489C
:1049380000ED00E000E100E0F0B59BB00024179422
:104948001894199411941294139414941594169419
:104958000D940E940F94109409940A940B940C944B
:1049680005940694079408947D4BD3F8882022F088
:10497800405242F08052C3F88820DA6C42F4005268
:10498800DA64DA6C02F400520292029ADA6C42F0AB
:104998000102DA64DA6C02F001020192019ADA6C1F
:1049A80042F00202DA64DB6C03F002030093009B1E
:1049B8000126039603250495079403A94FF0904018
:1049C800FBF7EAFF042303930495079403A94FF028
:1049D8009040FBF7E1FF0223039304950794614F8E
:1049E80003A93846FBF7D8FF4FF480430393049597
:1049F800079403A93846FBF7CFFF17944FF40043F9
:104A08001893199417A94FF0A040FBF717FE1194BB
:104A18001296139414941594169411A94FF0A0406B
:104A2800FBF724FE4FF0A045D5F8C03023F47F53A0
:104A380023F03F03C5F8C0302B6923F480332B6182
:104A48002B6923F4806323F003032B610D940E94E8
:104A58000DA94548FBF7C2FD842309930A960B94D8
:104A68000C9409A92846FBF731FEEB6823F00043B4
:104A780023F4001343F00043EB60EB6C23F4C073A2
:104A880043F08003EB64AB6823F0204323F03F033B
:104A9800AB60AB6823F0104323F03F0343F080532F
:104AA800AB60324B1A689209314BA3FB0232920970
:104AB80002EB820293002F4AA2FB0323DB080BB10F
:104AC800013BFCE74FF0A043DA6C22F4785242F441
:104AD800C062DA6428495A6922F4606242F40072BA
:104AE8005A61D3F8B02022F00802C3F8B020DA6C7B
:104AF80022F4782242F4C022DA644A6822F4E0728E
:104B080042F040024A60D3F8B02022F48052C3F841
:104B1800B0201A6B22F4F86242F040021A635A6914
:104B280022F0380242F020025A61D3F8B02022F075
:104B38000202C3F8B0201A6B22F4F83242F4A04201
:104B48001A635A6922F4603242F400325A61D3F887
:104B5800B02022F02002C3F8B0201BB0F0BD00BF87
:104B6800001002400004004800030050581E0020B6
:104B7800632D3E05CDCCCCCC1400005030B597B099
:104B880000241394149415940D940E940F94109477
:104B98001194129409940A940B940C940594069415
:104BA80007940894544BD3F8882022F0405242F0DE
:104BB8008052C3F88820DA6C42F40052DA64DA6C66
:104BC80002F400520292029ADA6C42F00102DA64AC
:104BD800DB6C03F001030193019B40230393032340
:104BE8000493079403A94FF09040FBF7D5FE139464
:104BF8004FF4004314931594404D13A92846FBF72E
:104C08001DFD0E940F941094119412940DA928462A
:104C1800FBF72CFDD5F8C03023F47F5323F03F0376
:104C2800C5F8C0302B6923F480332B612B6923F43A
:104C3800806323F003032B618423099301230A93E0
:104C48000B940C9409A92846FBF740FDEB6823F068
:104C5800004323F4001343F00043EB60EB6C23F4B0
:104C6800C07343F08003EB64AB6823F0204323F068
:104C78003F03AB60AB6823F0104323F03F0343F0DE
:104C88008053AB601E4B1A6892091E4BA3FB02327D
:104C9800920902EB820293001B4AA2FB0323DB0862
:104CA8000BB1013BFCE7154BDA6C22F4785242F465
:104CB800C062DA6415495A6922F4606242F40072EB
:104CC8005A61D3F8B02022F00802C3F8B020DA6C99
:104CD80022F4782242F41022DA644A6822F0E06270
:104CE80042F080724A60D3F8B02022F48022C3F8E0
:104CF800B02017B030BD00BF0010024000010050C6
:104D0800581E0020632D3E05CDCCCCCC140100509C
:104D180010B58EB0002409940A940B940C940D9449
:104D280005940694079408941E4BDA6C42F001022D
:104D3800DA64DB6C03F001030193019B0223039304
:104D480003230493079403A94FF09040FBF724FE34
:104D5800099440230A930B940C940D9409A91248C2
:104D6800FBF7DAFC0294114B1B68114AA2FB0323E0
:104D7800DB0CC82202FB03F30293029B1BB1029BCC
:104D8800013B0293F9E703F1804303F582335A6844
:104D980022F400125A601A6822F400121A600EB047
:104DA80010BD00BF0010024000020140581E002044
:104DB80083DE1B4310B58EB0002409940A940B942B
:104DC8000C940D9405940694079408941E4BDA6C81
:104DD80042F00102DA64DB6C03F001030193019BEA
:104DE8008023039303230493079403A94FF090406F
:104DF800FBF7D2FD099440230A930B940C940D946D
:104E080009A91248FBF788FC0294114B1B68114A48
:104E1800A2FB0323DB0CC82202FB03F30293029BD1
:104E28001BB1029B013B0293F9E703F1804303F5B1
:104E380082335A6822F480025A601A6822F4800287
:104E48001A600EB010BD00BF0010024004020140FD
:104E5800581E002083DE1B4310B58EB00024099431
:104E68000A940B940C940D94059406940794089452
:104E78001D4BDA6C42F00202DA64DB6C03F00203C9
:104E88000193019B0123039303230493079403A92C
:104E98001648FBF781FD099440230A930B940C9460
:104EA8000D9409A91248FBF737FC0294114B1B68B3
:104EB800114AA2FB0323DB0CC82202FB03F3029373
:104EC800029B1BB1029B013B0293F9E703F180436C
:104ED80003F582335A6822F080425A601A6822F039
:104EE80080421A600EB010BD001002400004004855
:104EF8000C020140581E002083DE1B4310B588B009
:104F0800002304931B4AD16C41F48021D164D26CF4
:104F180002F480220092009A174CE26B22F400728D
:104F2800E2630193029303930222059201220692FF
:104F3800079301AA11492046FBF708FC236823F0D0
:104F480002032360E36B23F48073E363E36B23F0D2
:104F58000073E36301AA0A492046FBF7F7FB2368BD
:104F680023F400332360E36B23F08073E36308B01A
:104F780010BD00BF001002400010005001001102D7
:104F8800F200423530B58DB00024089409940A9493
:104F98000B940494059406940794224BDA6C42F01F
:104FA8000102DA64DB6C03F001030193019B022325
:104FB800029303250395069402A94FF09040FBF74E
:104FC800EBFC042302930395069402A94FF090404A
:104FD800FBF7E2FC08230293039506940DEB03010B
:104FE8004FF09040FBF7D8FC08940F4B09930A94B4
:104FF8000E4C08A92046FBF788FDA36923F0380367
:10500800A361236823F480732360236823F4E033C7
:1050180043F440432360236823F0100323600DB05A
:1050280030BD00BF001002404000020000030140F4
:1050380030B58DB00024089409940A940B94049414
:10504800059406940794214BDA6C42F00102DA6465
:10505800DB6C03F001030193019B202302930325DA
:105068000395069402A94FF09040FBF795FC402366
:1050780002930395069402A94FF09040FBF78CFC2D
:10508800802302930395069402A94FF09040FBF702
:1050980083FC08940E4B09930A940E4C08A92046E9
:1050A800FBF733FDA36923F03803A361236823F4D6
:1050B80080732360236823F4E03343F44043236080
:1050C800236823F0100323600DB030BD00100240A8
:1050D800400002000403014070B58CB0002408941D
:1050E80009940A940B940494059406940794204B0D
:1050F800DA6C42F00202DA64DB6C03F0020301931B
:10510800019B01230293032603960694194D02A9D5
:105118002846FBF741FC022302930396069402A952
:105128002846FBF739FC042302930396069402A948
:105138002846FBF731FC08940F4B09930A940F4C4F
:1051480008A92046FBF7E1FCA36923F03803A36113
:10515800236843F480732360236823F4E03343F423
:1051680040432360236823F0100323600CB070BD14
:1051780000100240000400484000020008030140FB
:1051880070B58EB0002409940A940B940C940D9475
:10519800394B9A6D42F004029A659A6D02F0040246
:1051A8000292029ADA6C42F00202DA64DB6C03F0D3
:1051B80002030193019B4023039302250495059460
:1051C8000694079408952D4E03A93046FBF7E4FB97
:1051D800802303930495059406940794089503A9DE
:1051E8003046FBF7D9FBADF824400A9440F2CF7360
:1051F8000B930C94224C09A92046FBF771FF2368F6
:1052080023F080032360A36823F4803323F007038B
:1052180043F00303A360A36923F0030343F00103EE
:10522800A361A36923F00C03A361A36923F0F0032E
:10523800A361236A23F00A032362A36923F440735A
:1052480043F48073A361A36923F44063A361A36952
:1052580023F47043A361236A23F0A00323626368E5
:1052680023F0007323F070036360A36823F08003C6
:10527800A3600EB070BD00BF0010024000040048DB
:10528800000800402DE9F043A5B00025ADF87E5098
:1052980020242246294617A8FBF79CF830222946E5
:1052A8000BA8FBF797F805950695079508950995B6
:1052B8000A95B14B1A6E42F400621A661B6E03F42B
:1052C80000630493049BADF87C5020944FF4A653DC
:1052D80021934FF4807722974FF00108CDF88C8006
:1052E800A64C1FA92046FBF7FBFE236823F080038A
:1052F8002360A34EA36943F00803A36160231793B7
:10530800189519954FF426631A931B951C951D95AE
:105318001E9517AA41462046FBF73EFFA36923F0D6
:105328000403A361A36943F40063A36117AA1021CE
:105338002046FBF731FFA36923F48063A3617368F8
:1053480043F00803736017AA39462046FBF724FF89
:10535800736823F004037360736843F40063736035
:105368007023179341F2BF431A9317AA4FF4805141
:105378002046FBF711FF736823F480637360A3680A
:1053880023F4401323F0700343F01003A360A368D1
:1053980023F4803323F0070343F00603A360E36894
:1053A80023F04003E360E36823F48043E360636829
:1053B80023F0007323F0700343F0700363606368A5
:1053C80023F470036360A36823F08003A3606D4A2D
:1053D8005168022393FAA3F3002B00F0C680B3FAB6
:1053E80083F303F01F034FF4007000FA03F321EA7C
:1053F8000303022191FAA1F153605168042393FA3F
:10540800A3F3002B00F0B380B3FA83F303F01F0378
:105418004FF4007000FA03F321EA0303042191FA20
:10542800A1F153605168102393FAA3F3002B00F005
:10543800A080B3FA83F303F01F034FF4007707FA51
:1054480003F321EA0303102191FAA1F153604FF409
:1054580000630B934FF48068CDF830804FF480766A
:105468000D963F238DF838300025ADF83A504FF4AB
:1054780000540F94109511954FF0807312934FF0CC
:10548800007313934FF440131493159516950BA9B5
:105498003A48FBF7ABFE384BDA6C42F00402DA64A8
:1054A800DA6C02F004020392039ADA6C42F0020208
:1054B800DA64DA6C02F002020292029ADA6C42F0C2
:1054C8000102DA64DB6C03F001030193019B05948C
:1054D800022406940794089509944FF00409CDF81E
:1054E800289005A92848FBF757FA4FF4004305937D
:1054F8000694079408950994CDF8289005A923489F
:10550800FBF74AFA05960694079408950994062627
:105518000A9605A94FF09040FBF73EFA05970694C6
:105528000794089509940A9605A94FF09040FBF74F
:1055380033FACDF8148006940794089509940A96CE
:1055480005A94FF09040FBF727FA4FF480530593D5
:1055580006940794089509940A9605A94FF0904077
:10556800FBF71AFA25B0BDE8F083202339E720239A
:105578004CE720235FE700BF00100240002C0140E9
:10558800182C0140602C0140000800480004004825
:10559800F0B591B0202200210DEB0200FAF71AFFB6
:1055A8005F4BD3F8882022F00C02C3F888209A6D4C
:1055B80042F400329A659A6D02F400320192019A1F
:1055C800DA6C42F00202DA64DB6C03F00203009347
:1055D800009B082302930227039700240494059450
:1055E8000694072607964F4D0DEB03012846FBF757
:1055F800D3F910230293039704940594069407960D
:1056080002A92846FBF7C8F9474A136823F0FF03A5
:1056180043F01A031360454B1A6822F4804222F0C3
:1056280010021A601A6822F440521A601A6822F0AE
:1056380020021A601A6822F040021A601A6842F0C2
:1056480080021A601A6822F440721A601A6822F4FA
:1056580040621A60364A136823F0FF0343F01B03C5
:105668001360344B1A6822F4804222F0100242F090
:1056780010021A601A6822F440521A601A6822F05E
:1056880020021A601A6822F040021A601A6842F072
:1056980080021A601A6822F440721A601A6822F4AA
:1056A80040621A6008944FF4E11309930A940B942A
:1056B8000C940C230D930E940F9408A91E48FBF725
:1056C800DBFD1E4B53E8002F22F0604243E8002127
:1056D8000029F6D153E8002F22F0606243E8002148
:1056E8000029F7D1144B1A6822F000521A605A6840
:1056F80022F490425A609A6822F02A029A601A6844
:1057080042F001021A600C4BDB6913F4001FFAD057
:10571800094BDB6913F4800FF5D011B0F0BD00BF61
:10572800001002400004004800080240080002403F
:10573800040802401C0002400044004008440040A5
:1057480072B6FEE708B53B4A136823F00F0343F02F
:1057580004031360374B1B6803F00F03042BF9D1C4
:10576800354AD2F8803023F48073C2F8803002F5CD
:10577800D032136843F480331360304B1B6813F442
:10578800003FFAD02D4BD9682D4A0A4042F4AA426C
:1057980042F01302DA60DA682A4911402A4A0A43B9
:1057A800DA60DA6842F08072DA60DA6842F48032ED
:1057B800DA601A6842F080721A60204B1B6813F096
:1057C800007FFAD01D4A936843F0030393609368FF
:1057D80023F0F00343F080039360184B9B6803F0B9
:1057E8000C030C2BF9D1194AD36843F08073D360AA
:1057F800174B1A6842F001021A6000225A60144BD3
:105808005B68632BFBD90D4B9A6822F0F0029A6013
:105818009A6822F4E0629A609A6822F460529A6068
:105828000C48FBF7C1FD0420FAF724FE00B908BDB7
:10583800FFF786FF00200240007000400010024081
:105848000C80FFF90C80FF0713550040F0ED00E0D5
:10585800001000E080FE210A08B5FAF733FEFFF7D2
:1058680071FFFEF783FFFEF769FFFFF765F8FFF7A3
:1058780085F9FFF74DFAFFF79DFAFFF7EDFAFEF706
:105888004DFFFFF73BFBFFF77DFBFFF7D1FBFFF772
:1058980023FCFFF7F7FCFFF773FCFFF779FE01F035
:1058A800A5F9FEF769FE064A136843F00103136081
:1058B800034B5A6A034B1A600120FBF75FFDF7E7B9
:1058C80000080040881E002008B5FEF7DDFD044BE7
:1058D800C3E90001034B186800F0EAF808BD00BFEF
:1058E80008000020E430002008B5024B186800F0DA
:1058F800F8F808BDE430002008B5024B186800F03D
:10590800D0F808BDE4300020022070477047704787
:1059180001604260836000230373C3814382038272
:1059280083820383C382C38380F8263080F82030C3
:1059380080F8213043848384704701230373C18135
:10594800C28380F82630032380F82730704710B4CC
:1059580004240473C18142820382012380F8263023
:10596800032380F827305DF8044B704710B40524F2
:10597800047381820283C382012380F826300423C2
:1059880080F827305DF8044B704702230373818247
:10599800C283012380F82630042380F8273070471B
:1059A80082B003220273418309148183012380F8A2
:1059B8002630042380F8273002B07047438C0B430D
:1059C80023EA02034384838C19438184704790F847
:1059D8002630012B00D0704710B50446037B013BED
:1059E800042B5AD8DFE803F0032C50173B00436818
:1059F800002283F8242003210068FCF76CFDE28B69
:105A0800B4F90E102068FCF76BFD002845D002237E
:105A180084F8263010BD4368002283F8242003212F
:105A28000068FCF758FDB4F91030B4F91220B4F945
:105A38000E102068FCF7A4FD003818BF0120E4E729
:105A48004368002283F8242004210068FCF743FD02
:105A5800E28BB4F914102068FCF742FDD5E74368DF
:105A6800002283F8242004210068FCF734FDB4F9EF
:105A78001630B4F91820B4F914102068FCF780FD2A
:105A8800003818BF0120C0E74368012283F82420AA
:105A98004368D0F81A201A61B9E7032384F826303E
:105AA800B8E790F821007047808C7047408C7047A9
:105AB80010B50446FFF7F5FF08B1002010BD2046D9
:105AC800FFF7F2FF08B10020F8E72046FFF7EEFFE6
