:020000040800F2
:1000000000800020E1820008318300080981000897
:1000100031830008318300083183000800000000AC
:100020000000000000000000000000003183000814
:1000300031830008000000003183000811810008AE
:1000400031830008318300083183000831830008C0
:1000500031830008318300083183000831830008B0
:1000600031830008318300083183000831830008A0
:100070003183000831830008318300083183000890
:100080003183000800000000797F000831830008F8
:100090003183000831830008318300083183000870
:1000A000A57F0008897F000831830008318300089C
:1000B0003183000831830008318300083183000850
:1000C0003183000831830008318300083183000840
:1000D000318300083183000809800008318300085B
:1000E0003D81000831830008318300083183000816
:1000F00031830008318300083183000800000000CC
:100100000000000031830008000000003183000877
:1001100031830008000000003183000831830008AB
:1001200031830008E57F000831830008318300082F
:100130003183000800000000000000003183000847
:100140003183000831830008000000000000000037
:10015000000000000000000000000000000000009F
:1001600000000000000000000000000031830008D3
:1001700031830008000000000000000000000000C3
:1001800000000000318300080000000000000000B3
:10019000000000000000000000000000000000005F
:1001A00000000000000000003183000831830008D7
:1001B000318300083183000831830008000000000B
:1001C0000000000031830008000000000000000073
:0801D0003183000831830008AF
:1001D8000348044B834202D0034B03B118477047CE
:1001E800DC060020DC060020000000000548064967
:1001F8000B1AD90F01EBA301491002D0034B03B12D
:1002080018477047DC060020DC06002000000000CC
:1002180010B5064C237843B9FFF7DAFF044B13B146
:100228000448AFF300800123237010BDDC060020D2
:10023800000000003483000808B5044B1BB10449D2
:100248000448AFF30080BDE80840CFE70000000095
:10025800E00600203483000870B50D4E0D4D761B66
:10026800B61006D00024013455F8043B9847A6423E
:10027800F9D1094E094D761B08F058F8B61006D08A
:100288000024013455F8043B9847A642F9D170BDC3
:10029800848600088486000888860008848600080A
:1002A800844641EA000313F003036DD1403A41D379
:1002B80051F8043B40F8043B51F8043B40F8043B38
:1002C80051F8043B40F8043B51F8043B40F8043B28
:1002D80051F8043B40F8043B51F8043B40F8043B18
:1002E80051F8043B40F8043B51F8043B40F8043B08
:1002F80051F8043B40F8043B51F8043B40F8043BF8
:1003080051F8043B40F8043B51F8043B40F8043BE7
:1003180051F8043B40F8043B51F8043B40F8043BD7
:1003280051F8043B40F8043B51F8043B40F8043BC7
:10033800403ABDD2303211D351F8043B40F8043B67
:1003480051F8043B40F8043B51F8043B40F8043BA7
:1003580051F8043B40F8043B103AEDD20C3205D377
:1003680051F8043B40F8043B043AF9D2043208D06F
:10037800D2071CBF11F8013B00F8013B01D30B88E1
:1003880003806046704700BF082A13D38B078DD0BF
:1003980010F003038AD0C3F10403D21ADB071CBF91
:1003A80011F8013B00F8013B80D331F8023B20F8FB
:1003B800023B7BE7043AD9D3013A11F8013B00F834
:1003C800013BF9D20B7803704B7843708B788370BC
:1003D80060467047F0B4860746D0541E002A3CD0C9
:1003E800CAB2034602E014F1FF3436D303F8012BF6
:1003F8009D07F8D1032C29D9CDB245EA05250F2C44
:1004080045EA054533D9A4F11006360903F120075A
:1004180007EB061703F1100242E9045542E90255B9
:100428001032BA42F8D1721C14F00C0F03EB02120E
:1004380004F00F0613D0331F23F0030304331344CF
:1004480042F8045B9342FBD106F003042CB1C9B215
:100458001C4403F8011B9C42FBD1F0BC7047344696
:100468001346002CF3D1F8E714460346C2E71A46B0
:100478002646E0E7104B1B680BB90120704710B502
:1004880004464FF47A70B0FBF3F30C4A1068B0FBE3
:10049800F3F000F079F868B90F2C01D901200AE0CF
:1004A800002221464FF0FF3000F03AF8044B1C6060
:1004B800002000E0012010BD00000020D806002028
:1004C8000400002010B5032000F018F80420FFF7FE
:1004D800D1FF10B10124204610BD044607F0F4FCFA
:1004E800F9E70000034A1368034909680B441360DD
:1004F800704700BFB018002000000020074AD368EA
:1005080023F4E0631B041B0C000200F4E0600343C7
:1005180043F0BF6343F40033D360704700ED00E05D
:1005280030B4174BDB68C3F30223C3F10704042C70
:1005380028BF04241D1D062D18D9033B4FF0FF3595
:1005480005FA04F421EA0401994005FA03F322EAC2
:100558000303194300280BDB0901C9B200F160400D
:1005680000F5614080F8001330BC70470023E5E7D0
:1005780000F00F000901C9B2024B1954F4E700BF9B
:1005880000ED00E014ED00E00138B0F1807F0AD200
:10059800064B5860064AF02182F823100020986024
:1005A80007221A6070470120704700BF10E000E082
:1005B80000ED00E0704708B5FFF7FCFF08BD00003C
:1005C800F0B482B000235BE086685F000325BD407D
:1005D80026EA0506CD68BD4035438560466826EAAB
:1005E80004064D68C5F300149C403443446055E04C
:1005F800DD08083550F8257003F00704A6000F241D
:10060800B44027EA04070C69B4403C4340F825404D
:1006180058E0052400E00024B4403C4302354F4E26
:1006280046F825404E4CA568D44325EA02064F6893
:1006380017F4801F01D042EA0506494DAE60ED6807
:1006480004EA05064F6817F4001F01D042EA0506C0
:10065800434DEE606D6804EA05064F6817F4003FE5
:1006680001D042EA05063E4D6E602D682C404E686A
:1006780016F4803F01D042EA0504394A1460013378
:100688000A6832FA03F465D001249C402240F6D06F
:100698004D6805F00305013D012D95D94C6804F01E
:1006A8000304032C09D0C5685E000324B44025EA7E
:1006B80004058C68B4402C43C4604C6804F00304FF
:1006C800022C95D005685E000324B44025EA040591
:1006D8004C6804F00304B4402C4304604C6814F4E0
:1006E800403FCCD01F4C256E45F001052566246E91
:1006F80004F001040194019C9D08AE1C174C54F8A9
:10070800267003F00304A6000F24B44027EA040768
:10071800B0F1904F3FF47FAF134CA04212D004F5D4
:100728008064A04210D004F58064A0420ED004F585
:100738008064A0420CD004F58064A0423FF469AF05
:10074800062469E7012467E7022465E7032463E7D1
:10075800042461E702B0F0BC704700BF000001400C
:10076800000401400010024000040048024A936857
:1007780043F480439360704700700040014B186851
:10078800704700BFD806002003682C4A90420ED05C
:10079800B0F1804F0BD0A2F59432904207D002F509
:1007A8008062904203D002F59632904203D123F042
:1007B80070034A681343214A90421AD0B0F1804F1F
:1007C80017D0A2F59432904213D002F5806290427D
:1007D8000FD002F5963290420BD002F5406290425B
:1007E80007D002F58062904203D002F58062904201
:1007F80003D123F44073CA68134323F080034A6982
:10080800134303608B68C3620B6883620B4B984287
:100818000FD003F5006398420BD003F5406398426C
:1008280007D003F58063984203D003F580639842AC
:1008380001D10B690363012343617047002C014018
:10084800002853D0F8B50D46044690F83D30002BEB
:1008580047D0022384F83D302268936823F4A033FC
:1008680023F007039360214651F8040BFFF78CFF30
:1008780021688A688E690F6A2868104326F44076D2
:1008880026F00306AA68AB6942EA0323334323F43C
:100898007C4323F0FC03EE68EA6946EA02261E431D
:1008A8002A6A13032A6943EA0213334327F0AA0783
:1008B8006A686D6942EA05123A43886021688B616B
:1008C80023681A62012384F8483084F83E3084F89B
:1008D8003F3084F8443084F8453084F83D300020B7
:1008E800F8BD80F83C3007F00FFBB2E701207047F5
:1008F80090F83C30012B40D030B4012380F83C30D4
:10090800022380F83D300268536895681C4CA24267
:1009180003D004F50064A24203D123F470034C68A9
:10092800234323F0007323F070030C6823435360C0
:100938000368134A934212D0B3F1804F0FD0A2F547
:10094800943293420BD002F58062934207D002F5AD
:100958009632934203D002F54062934204D125F0C7
:1009680080058A6815439D60012380F83D30002387
:1009780080F83C30184630BC70470220704700BFF2
:10098800002C014010B44C684FF0A0439B6813F052
:10099800010300D00123114A926812F0010200D02D
:1009A8000122134315D164B182680D4B13400A68C4
:1009B80014438A681443CA6814431C4384600020A3
:1009C80008E08268064B13400A68134383600020DE
:1009D80000E001205DF8044B704700BF00010050A3
:1009E800E030C0FF836813F0010F10D110B4C36862
:1009F80023F4404323F018030A684C6822438968AB
:100A08000A431343C36000205DF8044B704701207C
:100A1800704700004A68836813F0010F26D110B4AC
:100A2800BAB1C368124A1A400B688C682343CC6871
:100A380023430C6923434C6923431343C3604B6826
:100A4800026B22F00F021343036300205DF8044B8E
:100A58007047C368064A1A400B68CC6823430C6980
:100A680023434C6923431343C360E8E701207047DD
:100A78001CC0F0FF4A68836813F0010F1ED110B440
:100A8800AAB1C36823F004738A68CC68224313436D
:100A9800C360C36C23F4FF7323F001030A68496839
:100AA8000A431343C36400205DF8044B7047C368CE
:100AB80023F00473CA681343C360EAE70120704750
:100AC8000346027A002A00F0B18010B400680028BA
:100AD8003FD05A7A012A1DD0022A26D062B10120BD
:100AE8009A7A002A35D0022A3FD0032A48D0012A10
:100AF80025D040F002002CE002F1804202F582325B
:100B0800516821EA000050601968106801431160BB
:100B18000020E5E7514A116821EA000010601968D1
:100B28005068014351600020DAE74C4A11680843D5
:100B3800106019685068014351600020D0E71C68B4
:100B4800464AD16821EA0401D160196894682143B2
:100B580091605A68002A51D0597A012931D0022966
:100B680039D0B9B140F0040020E01C683B4A9168D4
:100B780021EA040191601968D4682143D160E8E74B
:100B88001968364A9468214391601968D4682143EA
:100B9800D160DEE701F1804101F582314C6A24EA37
:100BA80002024A625A680C6A22430A629A7A2AB393
:100BB800022A26D0032A2FD0012A15D040F005009A
:100BC8001CE026490C6A24EA02020A625A684C6A46
:100BD80022434A62EAE721490C6A22430A625A68B8
:100BE8004C6A22434A62E1E75C681C4AD16A21EAFE
:100BF8000401D1625B68916A0B4393625DF8044B10
:100C080070475C68154A916A21EA040191625B6841
:100C1800D16A0B43D362F1E75968104A946A2143B9
:100C280091625B68D16A0B43D362E7E700680B4ABD
:100C3800116821EA000111601868516821EA000171
:100C480051605868116A21EA000111625968536AB3
:100C580023EA010353620020704700BF00040140EB
:100C6800F0B40A6892FAA2F212B1B2FA82F248E03B
:100C7800202246E0202558E02024640006FA04F4E7
:100C88002C4384600E68CD68446824EA060405FB9A
:100C980006F52C4344600E69C46893FAA3F5002D49
:100CA80050D0B5FA85F56D00032707FA05F524EA53
:100CB800050593FAA3F4002C46D0B4FA84F4640032
:100CC80006FA04F42C43C4604C68022C3ED04E68EB
:100CD800056893FAA3F4002C74D0B4FA84F4640081
:100CE800032707FA04F425EA040493FAA3F3002B74
:100CF8006AD0B3FA83F35B0006FA03F32343036075
:100D080001320B6833FA02F460D001249440234086
:100D1800F6D04C68013C012CBDD88E68846893FAE3
:100D2800A3F5002DA6D0B5FA85F56D00032707FABF
:100D380005F524EA050593FAA3F4002C9CD0B4FA2F
:100D480084F49AE72025AEE72024B8E7FF2B1BD8C8
:100D58004E69046A93FAA3F595B1B5FA85F5AD0025
:100D68000F2707FA05F524EA050593FAA3F44CB111
:100D7800B4FA84F4A40006FA04F42C430462A6E747
:100D88002025ECE72024F5E74F69466A1C0A94FA07
:100D9800A4F59DB1B5FA85F5AD004FF00F0C0CFA2E
:100DA80005F526EA050594FAA4F44CB1B4FA84F4DE
:100DB800A40007FA04F42C43446288E72025EBE7F3
:100DC8002024F5E720248AE7202394E70020F0BCBC
:100DD80070474B680268002A21DB602B11D010B4E1
:100DE800026822F4C12222F0EC020C6823438C68CA
:100DF8002343C9680B431343036000205DF8044B89
:100E08007047036823F4C12323F0EC030A68896858
:100E18000A43134343F06003036000207047012036
:100E280070470000044B9B68C3F30313034AD35C69
:100E380003F01F03D8407047001002406486000882
:100E4800044B9B68C3F30223034AD35C03F01F03DC
:100E5800D84070470010024074860008044B9B6815
:100E6800C3F3C223034AD35C03F01F03D84070477F
:100E780000100240748600080E4BDB6803F0030381
:100E8800032B14D00C4B0B4AD068C0F3062000FB90
:100E980003F0D368C3F303130133B0FBF3F0D36853
:100EA800C3F3416301335B00B0FBF3F07047034BBE
:100EB800E9E700BF001002400024F40000127A00A5
:100EC80008B5074B9B6803F00C03082B04D00C2BC8
:100ED80004D1FFF7D1FF02E0024800E0024808BD54
:100EE8000010024000127A000024F40008B503281C
:100EF80005D00C282CD0302853D0002008BD3D4BFD
:100F0800D3F88830034043EA00403B4B98420FD067
:100F1800B0F1031F13D0013B984206D0FFF7D0FF72
:100F2800FFF780FFFFF79AFFE8E7FFF7C9FFE5E75C
:100F3800304B186810F48060E0D03048DEE72D4B65
:100F4800D3F8900010F00200D8D04FF40040D5E755
:100F5800284BD3F88830034043EA0040284B984296
:100F68000FD0B0F10C1F13D0043B984206D0FFF706
:100F7800A7FFFFF757FFFFF763FFBFE7FFF7A0FFE4
:100F8800BCE71C4B186810F48060B7D01B48B5E765
:100F9800184BD3F8900010F00200AFD04FF4004087
:100FA800ACE7144BD3F88830034043EA0040154BB4
:100FB80098420FD0B0F1301F13D0103B984206D0A2
:100FC800FFF77EFFFFF72EFFFFF73AFF96E7FFF7E1
:100FD80077FF93E7074B186810F480608ED00748B6
:100FE8008CE7044BD3F8900010F0020086D04FF441
:100FF800004083E700100240020003000024F400D0
:1010080008000C0020003000C02801D000207047E4
:1010180008B5144BD3F88830034043EA0040124B1C
:1010280098420FD0B0F1C01F13D0403B984206D071
:10103800FFF746FFFFF7F6FEFFF702FF01E0FFF7B5
:101048003FFF08BD074B186810F48060F9D00748C7
:10105800F7E7044BD3F8900010F00200F1D04FF4FA
:101068000040EEE7001002408000C0000024F400B9
:1010780030B4036A23F001030362036A4468826997
:1010880022F4803222F073020D682A4323F002030F
:101098000D692B4323F001034D682B43164DA842DD
:1010A8000FD005F50065A8420BD005F54065A842AC
:1010B80007D005F58065A84203D005F58065A842EC
:1010C80012D123F008034D6943EA850323F0040392
:1010D8008D6843EA850324F480748D692C4324F4D5
:1010E8000074CD6944EA450444608261CA68426379
:1010F8000362002030BC7047002C014030B4036A02
:1011080023F010030362036A4468826922F0807244
:1011180022F4E6420D6842EA052223F020030D6915
:1011280043EA051323F010034D6843EA0513174DEE
:10113800A8420FD005F50065A8420BD005F540651B
:10114800A84207D005F58065A84203D005F580655B
:10115800A84213D123F080034D6943EA851323F095
:1011680040038D6843EA851324F480648D6944EA5A
:10117800850424F40064CD6944EAC50444608261AE
:10118800CA6882630362002030BC7047002C0140AB
:1011980030B4036A23F480730362036A4468C26943
:1011A80022F4803222F073020D682A4323F400737C
:1011B8000D6943EA052323F480734D6843EA052348
:1011C800174DA8420FD005F50065A8420BD005F5CC
:1011D8004065A84207D005F58065A84203D005F50B
:1011E8008065A84213D123F400634D6943EA85233F
:1011F80023F480638D6843EA852324F480548D6941
:1012080044EA051424F40054CD6944EA45144460C2
:10121800C261CA68C2630362002030BC704700BF65
:10122800002C014030B4036A23F480530362036A3C
:101238004468C26922F0807222F4E6420D6842EAEC
:10124800052223F400530D6943EA053323F4805340
:101258004D6843EA0533174DA8420FD005F50065E0
:10126800A8420BD005F54065A84207D005F5806572
:10127800A84203D005F58065A84213D123F40043A2
:101288004D6943EA853323F480438D6843EA853307
:1012980024F480448D6944EA851424F40044CD691B
:1012A80044EAC5144460C261CA680264036200204B
:1012B80030BC7047002C014030B4036A23F48033FB
:1012C8000362036A026D22F4803222F070020C6815
:1012D800224323F400330C6943EA044323F48033A4
:1012E8004C6843EA0443114CA0420FD004F5006453
:1012F800A0420BD004F54064A04207D004F58064F6
:10130800A04203D004F58064A04206D1446824F4C6
:1013180080348D6944EA052444600265CA68816C9A
:1013280082640362002030BC704700BF002C01407B
:1013380030B4036A23F480130362036A026D22F057
:10134800807222F4E0420C6842EA042223F400137B
:101358000C6943EA045323F480134C6843EA0453AA
:10136800104CA0420FD004F50064A0420BD004F545
:101378004064A04207D004F58064A04203D004F57D
:101388008064A04206D1446824F480248D6944EA2C
:10139800852444600265CA68C2640362002030BCC8
:1013A800704700BF002C014003682C4A90420ED0C1
:1013B800B0F1804F0BD0A2F59432904207D002F5DD
:1013C8008062904203D002F59632904203D123F016
:1013D80070034A681343214A90421AD0B0F1804FF3
:1013E80017D0A2F59432904213D002F58062904251
:1013F8000FD002F5963290420BD002F5406290422F
:1014080007D002F58062904203D002F580629042D4
:1014180003D123F44073CA68134303608B68C36223
:101428000B8883620D4B98420FD003F500639842F6
:101438000BD003F54063984207D003F580639842C8
:1014480003D003F58063984201D10B6903634369B4
:1014580043F0010343610020704700BF002C0140A6
:1014680008B50B461146B3F5805F1DD00ED8102B7A
:1014780017D0B3F5807F02D1FFF78AFE05E0012B74
:1014880002D1FFF7F5FD00E0012008BDB3F5803F6C
:101498000DD0B3F5801F02D1FFF74AFFF5E7012011
:1014A800F3E7FFF72BFEF0E7FFF7BCFEEDE7FFF7EA
:1014B80003FFEAE70B7B8A68134323F480634A68D7
:1014C800134323F400630A68134323F48053CA893F
:1014D800134323F400530A69134323F48043CA6A6D
:1014E800134323F400431343144A904203D002F5F4
:1014F8000062904207D123F470234A69134323F012
:1015080080538A6913430D4A904203D002F5006262
:1015180090420FD123F470034A6A134323F0807377
:10152800CA69134323F000730A6A134323F0005374
:101538008A6A134343640020704700BF002C0140AF
:1015480038B5036813F0010F6DD104460D460368E2
:10155800364A1A408B6809690B4369690B43E96984
:101568000B4313430360EB68426822F44052134371
:101578004360AB69826822F44072134383602C4B4A
:10158800984210D02B4B984216D02B4B984217D02C
:101598002A4B984218D00120E26A22F00F022B88C9
:1015A8001343E36238BD0320FFF7A0FC002838D0BE
:1015B8006A686AB90120EFE70C20FFF797FCF5E7A6
:1015C8003020FFF793FCF1E7C020FFF71DFDEDE7A2
:1015D8002B68E9690B2B0FD872B1B1F5004F0DD00C
:1015E800DBB2174951F82330B0FBF3F303EB520396
:1015F800B3FBF2F39BB2E3600020CDE7DBB2104906
:1016080051F82330B0FBF3F0530803EB4000B0FB74
:10161800F2F34FF6F0721A40C3F342031343E36048
:10162800EAE70120B8E70120BCE700BFF369FFEF54
:10163800003801400044004000480040004C004091
:101648004C830008014B1860704700BFD806002083
:10165800C0887047C388408803FB00F0000C7047BF
:1016680070B584B00191029103880CB20D1405FB8A
:1016780005F203FB03F3468806FB06F004FB04218E
:101688008B420CDA824214DD002D1CDB181A04F0A0
:1016980091F9002C19DBADF80800ADF80A60029B3F
:1016A80000209AB262F30F001B0C63F31F4004B0D2
:1016B80070BD981A04F07EF9002C01DB2E46EAE78B
:1016C80040422E46E7E77642E0E74042E3E7000083
:1016D800F0B583B004464768388820F007039BB20A
:1016E80000F47F42B2F5807F39D00026013800F03F
:1016F80007005A4D05EB4015A089023880B2A08139
:101708000237676022689289013A91B212B24FF0AB
:10171800000CA4F80EC0382B25D8382B00F299807D
:10172800DFE803F045979797979797974C97979780
:1017380097979797509797979797979754979797BB
:10174800979797975B979797979797976097979794
:10175800979797976C979797979797977C00C3F366
:10176800C4061346C2E7602B15D8482B11D3483B53
:10177800182B6CD8DFE803F0576B6B6B6B6B6B6BDC
:101788005C6B6B6B6B6B6B6B5C6B6B6B6B6B6B6BBF
:101798005C00022003E0B3F5807F49D00220A268F4
:1017A800E389D054E3890133E38103B0F0BD042316
:1017B800E381A36801221A700020F0E7204606F0B2
:1017C80029F8ECE7204606F06EF8E8E7284603F02B
:1017D8004AFF80F00100C0B2E1E7284603F05AFF53
:1017E8000020DCE7284603F038FF062801D0002057
:1017F800D5E7284603F0B3FF0020D0E7284603F0DA
:101808002CFF30B9284603F02EFF80F00100C0B24B
:10181800C5E7284603F03EFF0020C0E7284603F04E
:1018280057FF0020BBE7284603F0FEFF0020B6E77D
:10183800012E01D90D20B2E7094B53F8265055B1B6
:10184800A368009304F10E033946A847A7E70220CE
:10185800A5E70220A3E70D20A1E700BF001900209B
:101868004819002038B50446002380F82930038B36
:101878005BB1426990F82A10D15200684568228B02
:101888000232092392B26169A8470023238384F8AE
:101898002A30E37784F8223038BD000038B5044692
:1018A800C37F90F82220934202D00133C37738BD1A
:1018B8000023C377038BABB9014651F8140B0368B7
:1018C8000922984770B163694F4A12681A60042365
:1018D8002383002384F8203094F8293094F82A20B0
:1018E800934209D1238B002B44D0A28B934241D839
:1018F8006169194400232EE084F82A3094F82320E3
:1019080084F8242094F8273084F8283094F821109B
:1019180084F8221094F8251084F82610618BA1838E
:101928001A4492006168A068FEF7BAFC94F8232074
:1019380094F827301A44E1682069FEF7B1FCD1E732
:10194800A26852F82320128821F8022B228B023237
:1019580022830133DBB294F824209A42F0D894F819
:101968002630FD2B06D894F820108B421AD001316E
:1019780084F82010228BA38B9A4298D994F82630A9
:10198800FE2B28D06269238B94F82A10D152206844
:101998004568228B0232092392B26169A847002365
:1019A800238384E7002384F8203094F8283094F8BF
:1019B80024100B449A42DDDA6169238BA06850F841
:1019C80022000068C850238B2169895C0B4423835B
:1019D8000132D2B2E9E794F8243094F8282094F838
:1019E80024100A449342CDDA6169228BA06850F82A
:1019F800230000688850228B2169C95C0A4422832D
:101A08000133DBB2E9E700BFF806002038B5038BE5
:101A18009BB1044690F82630FE2B0FD06269238BC9
:101A280094F82A10D15220684568228B0232092383
:101A380092B26169A8470023238338BD90F8243007
:101A480094F8282094F824100A449342E6DA61694D
:101A5800228BA06850F8230000688850228B2169E7
:101A6800C95C0A4422830133DBB2E9E72DE9F04778
:101A780004460F88BFB10368DB89BB4253D38B7818
:101A880080F82130CB7880F823300A7980F8252037
:101A98004A7980F827208E1D1344827F934208DC00
:101AA8000025A84616E0FFF7DDFE00252846BDE81C
:101AB800F0870A25FAE7504605F022FFE36803F8A5
:101AC80009000236E36813F8093043441FFA83F823
:101AD8000135EDB294F8233094F8272013449D4241
:101AE8000EDAB6F800A06168A94601EB85015046F8
:101AF80005F016FF94F82330AB42DCD90220DDE76D
:101B080008F106039F4210D3A7EB0807BFB2023FB4
:101B18006783357884F829500DB10025C6E720463B
:101B2800FFF7A0FEC2E70925C0E70925BEE7038A3B
:101B3800428B934204D8828B934203D3C08A704766
:101B4800082070470020704700230382704710B5B3
:101B58000446037823B10023C382438A038210BD5D
:101B6800043005F0ADFF84F826002046FFF7ECFFAF
:101B7800F5E710B5044603781BB10023C382E08A59
:101B880010BD90F8260006F033F84FF6FF73984220
:101B980007D0228B511E238A01FB0300B0FBF2F011
:101BA80020822046FFF7C3FFE082E8E703785BB9AD
:101BB800038A026A9B1AB0F91E2003FB02F3808C89
:101BC80000EB234000B27047808AFBE7B0F9003091
:101BD8008380B0F90230C380B0F9203043840023F9
:101BE80083608362704781807047C1807047B0F915
:101BF80004007047B0F90600704781607047808B19
:101C080070478183012303FA01F101837047408BF8
:101C18007047C08B704701617047C1607047000012
:101C280038B505460C4601238B40C183438347F6EC
:101C3800FF71A140FFF7F1FF0249A1402846FFF7D5
:101C4800EAFF38BD0180FFFF41847047B0F92200E8
:101C58007047C08C7047C184012303FA01F1818465
:101C68007047000070B4B0F91440B0F91660B0F9CC
:101C7800042001FB02F2B0F906508DB900238360FD
:101C8800838B1A418168C38B41FA03F313442246BC
:101C98009C4223DAE31A0B44836010B270BC70478D
:101CA80001FB05F183685D1806D4002B0BDBC368C4
:101CB800AB420CDA8360E3E7002BF8DD0029F6DDA0
:101CC8006FF00045F3E70029F1DA084DEFE7036903
:101CD800AB4201DD8360D3E78560D1E732469E429F
:101CE80001DDF31AD7E71A460023D4E70100008084
:101CF80030B482B001468468E06802460546019027
:101D0800D4F8160012B204B22D14031403FB05F321
:101D180004FB0233002B09DBB1F90020C2EB23439B
:101D280002EB23130B8002B030BC704703F57F43EE
:101D3800FF33F1E700230380704738B50446B0F954
:101D48000050C068FFF786FC00FB05F300EE103A70
:101D5800B8EEC00AD4ED017A20EE270A38BD00009B
:101D68001D4B9B6D13F0010F16D182B01A4B9A6D63
:101D780042F001029A659A6D02F001020192019AFD
:101D88004FF080414A6942F001024A619A6D22F09F
:101D980001029A6502B070474FF08043596821F0FC
:101DA8007D4121F47F0121F47F4121F08F015A68A0
:101DB80022F0007222F0700242F020025A605A6942
:101DC80042F001025A615A6822F0007222F0700251
:101DD8000A435A60704700BF0010024030B4551CD7
:101DE8006D086D016FF00202026100241A78D2B208
:101DF8000F2A10D8026912F0020FF7D06FF0020212
:101E080002610134A4B2A542F0D81A78D2B20F2ADE
:101E1800ECD801230B8030BC7047418B838B19446D
:101E280049080023028B9A4205D9026A22F8131046
:101E380001339BB2F6E78180C180002380F825300A
:101E4800704710B504460C3005F03AFE84F82600B9
:101E58002046FFF7E2FF10BDC388428B934206D8A5
:101E6800828B934201D300207047042070470220E0
:101E7800704738B5044690F8260005F0B9FE4FF6CD
:101E8800FF7398421DD0236A94F8252023F8120086
:101E980000231946228BD5B29D4206D9226A32F810
:101EA800132011440133DBB2F4E7B1FBF2F1E18016
:101EB800A08094F82530013A934207D2013384F880
:101EC80025302046FFF7C8FF208138BD002384F85D
:101ED8002530F6E7002383604360C3600361012374
:101EE800436170478368C268012A08D901690B44B5
:101EF800013AC2608360406993FBF0F07047012AA1
:101F0800F8D14268436903FB02F30022C260F1E79B
:101F1800C3680BB10020704701207047021E0ADB1E
:101F280001201F2809D84FF00043C3409A4204D229
:101F38000130C0B2F5E75242F2E70138012303FA53
:101F480000F070472DE9F04704460F468168436961
:101F580091FBF3F862B93846FFF7E0FF606107FBD1
:101F680000F0A0600023E36023610120BDE8F08752
:101F78001546A7EB08063046FFF7D0FF82464046D5
:101F8800FFF7CCFF81463846FFF7C8FFCA4516D28F
:101F9800824500D25046606108FB00F2A26067608B
:101FA800226805FB02F5084AA2FB0535AD09013593
:101FB800E56000FB06F393FBF5F52561D5E7814560
:101FC800E9D24846E7E700BFD34D621010B400F1EC
:101FD8000C048166C2660367019B4367002380F88F
:101FE800543080F855302CB1042B03D8A468013341
:101FF800DBB2F8E79BB15A1E02EB420200EB820209
:102008000021516180F848300288642303FB02F301
:10201800044AA2FB0323C3F3871380F856305DF804
:10202800044B7047D34D62102DE9F04104460D462C
:10203800C76ED0F86880C180002680F8556080F8A7
:10204800586080F8536080F85460384600F088FF84
:102058000421404600F00CF96188ADB211FB05F18E
:1020680009B2384601F029F832463146404600F0B8
:1020780003F9218A15FB01F1A28909B2404600F053
:10208800FBF8E18915FB01F1A28909B2384601F094
:102098001BF8A289238803FB02F3064AA2FB032349
:1020A800C3F38F130133A3806369A36084F8576077
:1020B800BDE8F081D34D621010B5044683880BB19A
:1020C800013B8380A3884BBBA3684BB39988E28804
:1020D80011FB02F11A8809B2A06E00F0CDF8A368CE
:1020E8005988E28811FB02F11A8809B2E06E00F003
:1020F800EBFFA2681188238803FB01F30949A1FBC0
:102108000313C3F38F130133A3809368A36094F878
:102118005830013384F85830012000E0012010BD08
:102128000020FCE7D34D621090F8582090F8493011
:102138009A4201D2002070470120704710B4B2F9CA
:10214800044001EB410300EB83031C82B2F9024017
:10215800DC81138801EB410100EB81018B810120B7
:102168005DF8044B704790F84800704710B401EBD5
:10217800410300EB8303B3F910409480B3F90E30A8
:10218800538001EB410100EB81018B891380012011
:102198005DF8044B7047B0F904007047B0F90C00C3
:1021A8007047B0F91000704730B40346C0781C7807
:1021B800B1F90020002A1BDB92B2998A91421BD305
:1021C8000021DD8A954200D90121B3F91220002AA5
:1021D80014DB92B21D8B954200D399B1A04201D96C
:1021E8000134E4B2844211D001201C7030BC704725
:1021F80092B2524292B2E0E70121E2E792B2524231
:1022080092B2E7E7A042EDD90024EBE70020ECE723
:10221800B0F90C30C3EBC333B0F9140093FBF0F002
:1022280000B270470161426190F82A300370B0F93A
:102238002C301B044360B0F92E301B04836000234C
:102248004380C3608361704741617047406970474C
:1022580008B50378032B00D008BD00210069FFF7FB
:10226800CCFCF9E7B0F906007047B0F90A007047EE
:1022780001700023C360704770B504460D461646CA
:102288000178042911D0B0F90610C38B9D423BDCBC
:10229800B0F92430AB4239DC038C9D4214DAB0F932
:1022A8002230AB4234DB01200FE0FFF7DEFF0146AE
:1022B800E38C9D4206DC0120B4F92830AB4221DCD6
:1022C80018B302E00020F7E701205EB92378032B5A
:1022D80005D02D04A5600023E360A36115E02D045B
:1022E8006560F8E76580A38B06FB03F3094AA2FB48
:1022F80003239B090133E3606D1A2D0495FBF3F565
:10230800A56102E0002000E0002070BD0020FCE78D
:102318000020FAE7D34D62100023C3608361704741
:1023280070B504460278042A0CD04568E368012B8E
:102338000AD9A1690D44013BE360032A0CD0A560CA
:10234800281470BD8568F1E7012BF6D1B4F9025065
:102358002D040023E360F0E72E146069FFF71EFFE9
:10236800311A09B22069FFF77DFC65600304A36098
:10237800E7E7B0F92C00704782B0B0F92E30ADF81D
:102388000030B0F93030ADF80230009B00209AB22E
:1023980062F30F001B0C63F31F4002B0704710B5C7
:1023A80004464069FFF7FAFE0004606010BD10B4EF
:1023B80090F86C410023A3420CD203F124020021BF
:1023C80020F8121003F1640200EB4202D1800133BD
:1023D800DBB2F0E7002380F8C830A0F86831A0F835
:1023E8006A315DF8044B70472DE9F04F89B0B0F9B8
:1023F80004300493B0F90E300093B0F97691C46BB1
:10240800B0F92E30C3EBC332944240F3D280C2639A
:10241800C66BB0F87E4146FA04F73FB2056CAA4293
:1024280080F2CE800264D0F8408048FA04F424B2E6
:10243800456BB0F92C30C3EBC332954240F3C780EB
:102448004263856BAA4280F2CA808263436BB0F80C
:102458007CE143FA0EF20FFA82FB8D88521B12B20E
:10246800856B45FA0EFE0FFA8EF50595CD88AEEB15
:10247800050E0FFA8EFEB1F808C0B1F9005005FB41
:102488000CF52D14B1F902A00AFB0CFA4FEA2A4107
:102498000691B0F920A00BFB1A33B0F92210019174
:1024A80002FB0133B0F928C0CDF808C005FB0C3396
:1024B800B0F924C007FB1C330793B0F92630039307
:1024C80003FB0262418E44FA01F5B0F92AB005FB1C
:1024D8000BF5009B05FB0322059D836B05FB1A3A50
:1024E800019D0EFB05AA029D2B46069D05FB03AA2E
:1024F80004FB1CA5039B0EFB038E47FA01F101FBAD
:102508000BF1009B01FB13E1B0F94EC1BCF1000FC8
:102518006CDB4FF0010CA0F84470A0F846400CFBAF
:1025280006F60CFB08F46442484FDFF824E1C7F8CC
:1025380000E07E607C60BC682714BDF810E0CEEB3C
:102548001444A6B224B2BDF80080A6EB080636B241
:10255800BCF1010F4DD0002C5BDD4FF0000CB145F4
:102568006ADA08EB090424B290F8C8600136F6B2BA
:1025780090F86C71BE4267D006F1240E30F91E70D7
:10258800A0F8687106F1640700EB4707B7F9068001
:10259800A0F86A8120F81EC0FC8080F8C860079BFC
:1025A8004363C26385630164B0F9040009B0BDE800
:1025B800F08FA3EBC335AC423FF72AAFC56327E7DB
:1025C800A3EBC3339D423FF72EAF03642BE7A3EB86
:1025D800C33C65453FF735AFC0F834C031E7A3EBDE
:1025E800C3339D423FF732AF83632FE74FF0FF3C81
:1025F80091E7002C1DDBB14508DA08EB09070FFA53
:1026080087FC1EFA87FEA0F804E0A8E78780A446A6
:10261800A5E7C9F1000C664508DAA8EB09070FFA27
:1026280087FC1EFA87FEA0F804E098E78780A44696
:1026380095E74FF0000C92E7C9F10007BE4293DA24
:10264800A8EB090424B28FE7002695E7000C0240A6
:10265800620010002DE9F84F90F86C5100221346E3
:10266800AB4207D203F1240430F914402244013369
:10267800DBB2F5E70DB192FBF5F20026334608E030
:1026880003F1240430F91440A41A04FB046601334E
:10269800DBB2AB42F4D396FBF5F602FB02F44FEA49
:1026A800E47BB0F86E81A4FB084508FB0B55234674
:1026B8002F46002C75F1000C44DBDB0943EA476325
:1026C8009E4244DB0025438B02FB03F3827803FB25
:1026D80002F3C26993FBF2F3427893FBF2F31AB266
:1026E8000A80828180F8C95090F85C21002A55D070
:1026F800002BB8BF5B42B0F87A419C422EDDB0F99E
:102708004460B0F9464004FB04F406FB0646C3EBFC
:10271800C333B0F9144093FBF4F390F8794103FB09
:1027280004F4002C15DBA41104FB03F31C46002B56
:1027380011DBA41190F8787107FB1434A64210DC61
:1027480000220EE014F17F0345F10007B5E70125EB
:10275800B9E73F34E7E703F13F04EAE7002213460D
:10276800164680F85021C0F85461C0F8583190F8E6
:10277800CC30ABB105B1CAB990F8CB300133DBB27C
:1027880080F8CB3090F8752193420CD3002380F861
:10279800CB30C27802701846BDE8F88F0122E6E710
:1027A800FFF702FDF8E7FFF7FFFCF5E7002380F8E5
:1027B800CB30FFF7F9FCEFE708B5002242638263EC
:1027C800C26302648280C281A0F84E2180F8CA20C8
:1027D80080F8CB2080F8CC2080F85021C0F8542114
:1027E800C0F85821C0F86021C0F8642180F882211F
:1027F80080F88321FFF7DBFD08BD000010B5044613
:1028080090F8743180F8CA30012180F85C110023F7
:102818004386B0F92E000F4B93FBF0F31BB23BB18C
:1028280003EBD3735B104900628E01326286F6E7D0
:1028380009B2218601FB00F1074B83FB0123C9176D
:10284800C1EB232161852046FFF7B6FF0023638291
:1028580010BD00BF5EEA0F00C58D4806034690F81C
:1028680083210AB1B0F90C1093F8820128B1012232
:1028780083F8CC2000221A707047F0B4B3F90C50DA
:1028880001FB05F2002A4BDD002D2FDB002930DB90
:102898000E4693F8704104FB01F100292CDB41F34B
:1028A8000F1193F8712102FB06F2002A26DB42F38E
:1028B8000F1293F8C9407CB3B3F87271AEB2B74245
:1028C80026D2954220DB8D421ADC93F8CA200132C9
:1028D800D2B283F8CA2093F874118A4220D3012215
:1028E80083F8CC2000221A70204619E06D422DB2E0
:1028F800CCE7494209B2CBE70F31D0E70F32D6E730
:10290800002283F8CA200BE0002283F8CA2007E0DF
:10291800002283F8CA2003E0002283F8CA20204658
:10292800F0BC704782B0B0F94430ADF80030B0F96F
:102938004630ADF80230009B00209AB262F30F00D7
:102948001B0C63F31F4002B0704782B0426BB0F8B3
:102958007C110A41ADF80020836B0B41ADF80230C1
:10296800009B00209AB262F30F001B0C63F31F4018
:1029780002B07047B0F922300B80B0F926301380CE
:1029880070474184C2847047F0B4D0F86021D0F811
:10299800645190F86D4190F86C311EB290F8C810EF
:1029A8009FB21B1B9BB2FBB901F1240330F9134002
:1029B8001444B0F96831E41A643100EB4101B1F90B
:1029C80006302B44B0F96A219B1AB0F8802144FAEA
:1029D80002F1C18143FA02F2A0F84E21C0F8604129
:1029E800C0F86431F0BC70470B449CB21BB29E42E5
:1029F80001DCE31B1BB201F1240430F91440144438
:102A080003F1240230F91220A41A643100EB4101C9
:102A1800B1F906202A44643300EB4303B3F90630C6
:102A2800D31AD2E7D0F858017047D0F8540170474C
:102A3800036893F8C90070470368012283F882216C
:102A480070470368012283F88321704710B490F817
:102A58000E410023A34208D203F1380200EB4202E0
:102A6800002191800133DBB2F4E7002380F8F430D1
:102A7800A0F80C315DF8044B7047002800F0F38093
:102A88002DE9F04F8BB00446002900F0EE80826EED
:102A9800B0F92E30C3EBC330824240F3C380A06646
:102AA800A26EB4F81E5142FA05F601960FFA86F99D
:102AB800E66EB04280F2BD80E066E36E02932B4181
:102AC80003930FFA83F8256EB4F92C30C3EBC330A7
:102AD800854240F3B5802066656EA84280F2B780D3
:102AE8006066206EB4F81C5140FA05F30FFA83FAB9
:102AF8008E889B1B1BB2666E46FA05F52EB20496AD
:102B0800CE88AD1B2DB205950F89B1F9005005FB94
:102B180007F52E14B1F902E00EFB07F739140691F8
:102B2800B4F920E00AFB1E05B4F922C003FB0C55DA
:102B3800B4F9280006FB0055B4F9247009FB1751B5
:102B48000791B4F9261001FB0323628E48FA02F6B6
:102B5800B4F92AB006FB0BF6B4F90EA006FB0A3648
:102B6800049B1D46636E05FB1E3E059B03FB0CEE96
:102B7800069D05FB00EE08FB17E7029803FB010121
:102B880049FA02F202FB0BFB0BFB1A1BA4F870902C
:102B9800A4F8728094F9240118B9BAF1000F5DDB2A
:102BA800012080B2019B13FB00F80FFA88F8039B01
:102BB80013FB00F080B240420FFA80F9B4F9040028
:102BC80002F06EFE011401FB08F100B200FB09F0EF
:102BD80040F3CF3041F3CF31411A04F13400FFF70D
:102BE80041F8208294F8F4300133DBB294F80E21D6
:102BF800934236D003F1380204EB4202B2F90410D2
:102C0800A4F80C11908084F8F430A388184400B21A
:102C1800A080079B2366A6666766C4F86CB00BB0F5
:102C2800BDE8F08FA3EBC335AA423FF739AFA566DD
:102C380036E7A3EBC3339E423FF73FAFE3663CE77B
:102C4800A3EBC336B5423FF747AF266644E7A3EB8D
:102C5800C3339D423FF745AF636642E74FF0FF300D
:102C68009FE70023C6E7002070470020D7E72DE93B
:102C7800F84F90F80E5100231A46AB4209D203F1DF
:102C8800380400EB4404B4F9044022440133DBB2B5
:102C9800F3E70DB192FBF5F200231E460AE003F1BB
:102CA800380400EB4404B4F90440A41A04FB046695
:102CB8000133DBB2AB42F2D396FBF5F602FB02F42A
:102CC8004FEAE47BB0F81081A4FB084508FB0B55DC
:102CD80023462F46002C75F1000C44DBDB0943EA40
:102CE80047639E4244DB0025438B02FB03F3827853
:102CF80003FB02F3C26993FBF2F3427893FBF2F30E
:102D08001AB20A80828180F8F55090F80421002ACE
:102D180055D0002BB8BF5B42B0F81A419C422EDD5B
:102D2800B0F97060B0F9724004FB04F406FB064683
:102D3800C3EBC333B0F9144093FBF4F390F8194193
:102D480003FB04F4002C15DBA41104FB03F31C465D
:102D5800002B11DBA41190F8187107FB1434A6425C
:102D680010DC00220EE014F17F0345F10007B5E7FF
:102D78000125B9E73F34E7E703F13F04EAE700221A
:102D88001346164680F8F920C0F8FC60C0F80031F8
:102D980090F8F830ABB105B1CAB990F8F730013303
:102DA800DBB280F8F73090F8172193420CD3002358
:102DB80080F8F730C27802701846BDE8F88F012213
:102DC800E6E7FFF7F1F9F8E7FFF7EEF9F5E7002393
:102DD80080F8F730FFF7E8F9EFE770B490F8F410EF
:102DE800D0F8084190F80F2190F80E311DB29EB22C
:102DF8009B1A9BB28BB9383100EB4101B1F9043011
:102E08002344B0F90C219B1AB0F8202143FA02F2AE
:102E1800C281C0F8083170BC70470B449AB21BB22B
:102E28009D4201DC931B1BB2383100EB4101B1F923
:102E380004202244383300EB4303B3F90430D31A97
:102E4800E2E738B504460025056645668566C56629
:102E58008580C58180F8F65080F8F75080F8F850E2
:102E680080F8F950C0F8FC50C0F80051C0F808517B
:102E780080F8225180F82351FFF7E8FD294604F134
:102E88003400FEF7BAFE38BD10B5044690F8163186
:102E980080F8F630012180F8041100234386B0F948
:102EA8002E00114B93FBF0F31BB23BB103EBD37332
:102EB8005B104900628E01326286F6E709B221860C
:102EC80001FB00F1094B83FB0123C917C1EB232147
:102ED80061852046FFF7B5FF04F13400FEF776FE62
:102EE8000023638210BD00BF5EEA0F00C58D48064F
:102EF80082B0B0F97030ADF80030B0F97230ADF88A
:102F08000230009B00209AB262F30F001B0C63F39F
:102F18001F4002B0704782B0026EB0F81C110A411F
:102F2800ADF80020436E0B41ADF80230009B002045
:102F38009AB262F30F001B0C63F31F4002B0704794
:102F4800B0F922300B80B0F92630138070474184E5
:102F5800C2847047D0F800017047D0F8FC00704771
:102F6800002303708380C3808381C381438203620B
:102F780043620385038680F82C3080F82D30B0F941
:102F88003620C28580F8323080F83330704708B573
:102F9800FFF7E6FF08BD034690F833201AB1B1F9F0
:102FA80000009880704770B4B0F90E40008E10FA97
:102FB80084F086B200B218865A7894FBF2F2DD8863
:102FC8002A44DA8093F82C204AB1B3F92E204AB962
:102FD800B1F90000012283F82D2000221A70988090
:102FE80070BC7047013A12B2DA85002C15DB0C88E8
:102FF800A61B36B2012502FB06F2B3F9364092FB56
:10300800F4F212FB05F292B2002E0CDB012083F8D9
:1030180032000888821A10B2E1E70C88361B36B2F3
:103028004FF0FF35E7E793F83240002CD7D00888F7
:10303800024410B2D3E710B50346028D012A1DD908
:10304800026A406A104458620014D8815A8B02FB05
:1030580000F202EB82025200DC69587800FB04F0AF
:1030680092FBF0F212B20A809A811A8D013A1A85FF
:1030780093F82D00E8B9DA781A7010BD012A03D048
:10308800B0F90C200A80F3E7B0F92A00088098818B
:10309800DA6902FB00F2588B00EB8000400092FBDB
:1030A800F0F212B2587812FB00F2DA8100221A8587
:1030B800DEE71846FFF778F8DFE70186437891FBEB
:1030C800F3F3C3808180704790F82C30002B3BD1FC
:1030D80092B98181C36903FB01F3428B02EB82023F
:1030E800520093FBF2F31BB2427813FB02F3C38145
:1030F8000023038541857047F0B4838E03FB02F2F9
:10310800124BA3FB0223C3F38F1301339BB2038536
:10311800B0F90E50467895FBF6F7C26902FB01F24A
:10312800448B04EB8404640092FBF4F212B233B1D2
:10313800D21B120492FBF3F303FB06F303624185EF
:103148002D044562F0BC7047704700BFD34D621034
:1031580061B1012280F82C20B0F9362042B9012350
:1031680080F82D30002303701846704701207047FF
:103178000846704790F82D007047000082B08368B9
:1031880023F0204323F03F038360836813F0805FBC
:1031980016D1836823F0104323F03F0343F0805394
:1031A8008360244B1B689B09234AA2FB03239B09CA
:1031B8005B000193019B1BB1019B013B0193F9E764
:1031C800836823F0404323F03F0343F000438360C8
:1031D8008368002BFCDB036813F0010F08D18368B8
:1031E80023F0004323F03F0343F001038360F2E739
:1031F800836823F0004323F03F0343F00803836010
:10320800836823F0004323F03F0343F020038360E7
:10321800C36823F0004323F4001343F40013C3608E
:10322800836823F0004323F03F0343F004038360E3
:1032380002B07047D8060020632D3E0582B04FF4D7
:103248007A730193036823F001030360436823F052
:10325800007323F070034360836943F008038361BC
:10326800836943F400638361C36943F00803C3615E
:10327800C36943F40063C361436943F001034361D5
:10328800D1F8883093F8C720022A11D091F8682025
:10329800B2B993F8C130012B3CD0032B10D10123D4
:1032A8000363436943F0010343610323036307E0B6
:1032B80093F8C820012A20D0B1F87C30013B436242
:1032C8006FF080030361D1F8883093F8C23033B3CC
:1032D800026912F4807200D00122019BFBB1012A1D
:1032E8001DD16FF480730361019B013B0193036956
:1032F80013F48073F1D11A46EFE793F8C130032B2A
:10330800DAD101230363436943F0010343610323D3
:103318000363D1E7B1F87C30013B4362D0E7C3686F
:1033280043F08003C360036A43F4AA6343F00503D0
:10333800036202B07047002900F09E8070B40B460B
:10334800D0F88820956890F86A1001F1120402EB11
:1033580084046468266801F1180402EB8402526848
:1033680014686A6822F0007222F070026A60052907
:1033780014D8DFE801F0355B5B030335026F961B59
:1033880016F5004F1ADC48F201021A80426F141B2E
:1033980014F5004F1BDC48F201025A80B3F90020F3
:1033A800A0F85020B3F90220A0F852201B8892B24E
:1033B8005B429B1AA0F8543070BC7047B6F5004FBA
:1033C80003DB47F6FF721A80E0E71E80DEE7B4F5FC
:1033D800004F03DB47F6FF725A80DFE75C80DDE7CA
:1033E800426F961B16F5004F0EDC48F201025A8018
:1033F800826FA41AB3F90220A41AB4F5004F0CDBAB
:1034080047F6FF721A80C9E7B6F5004F03DB47F6A7
:10341800FF725A80ECE75E80EAE714F5004F03DCA0
:1034280048F201021A80B9E71C80B7E7026F961BC1
:1034380016F5004F0EDC48F201021A80826FA41ABA
:10344800B3F90020A41AB4F5004F0CDB47F6FF725D
:103458005A80A3E7B6F5004F03DB47F6FF721A80E0
:10346800ECE71E80EAE714F5004F03DC48F201029E
:103478005A8093E75C8091E77047000090F88130AC
:1034880080F86A30B0F87C20013A92B2D0F88830DF
:103498009B68C18F5963B0F840109963B0F8421027
:1034A800D9631A645A68034B1A4201D00120704745
:1034B800002070477000000269B370B40C46D0F861
:1034C80088309D6890F8812002F1120103EB810198
:1034D80049680968183203EB82035B681E686B68E9
:1034E80023F0007323F070036B6090F88030DBB238
:1034F8000F2B0BD8026F0A440267436F33444367AC
:1035080090F880300133DBB280F8803000232380CC
:10351800638070BC7047704729B310B40C46D0F86C
:103528008830996890F88120183203EB82035B6831
:103538001A684B6823F0007323F070034B6090F80F
:103548008030DBB20F2B08D8836F1344836790F861
:1035580080300133DBB280F8803000232380638021
:103568005DF8044B70477047D0F8882093680121B4
:1035780080F86B1092686FF00101116100225A63A4
:103588009A63DA631A6912F0010FFBD05A6C42F49D
:1035980000425A64D0F8883093F8C020022A00D03C
:1035A80070471A6AB3F8AC309361D0F888305A6A19
:1035B800B3F8AE309361D0F888309A6AB3F8B03077
:1035C8009361EDE710B4D0F888309B68012280F849
:1035D8008C20002280F86B20B0F87C2052085A63B7
:1035E800B0F87C2052089A63B0F87C205208DA635D
:1035F800B0F87C20053A1A646FF001021A611A6962
:1036080012F0010FFBD06FF001021A615A6C42F4FC
:1036180080625A645A6C42F400425A64D0F8882096
:1036280092F8C010022909D06FF001021A61DA6815
:1036380042F00102DA605DF8044B70471C6A40F200
:1036480055510C4210D0116AB2F8AC208A61D0F8FA
:103658008820516AB2F8AE208A61D0F88820916A31
:10366800B2F8B0208A61DFE7116AB2F8AC208A624A
:10367800D0F88820516AB2F8AE208A62D0F8882043
:10368800916AB2F8B0208A62CEE7D0F888309B6899
:10369800DA6822F00102DA60002280F86B205A6CA6
:1036A80022F400425A6490F884202AB9D0F888207D
:1036B80092F8C01002290DD06FF001021A611A6940
:1036C80012F0010FFBD06FF001021A61002380F89D
:1036D8008C307047116AB2F8AC208A62D0F8882022
:1036E800516AB2F8AE208A62D0F88820916AB2F89E
:1036F800B0208A62E0E7000030B482B001F108052A
:10370800030D9B0003F03C03EC5824F47F4424F0A1
:10371800F0041443EC504B6800F0030213434B6071
:103728000A6800F01000012303FA00F030EA0203EF
:1037380010D00B68184308600F4B1B680F4AA2FB98
:103748000323DB0CDB000193019B93B1019B013B3D
:103758000193F9E7084B1B68084AA2FB0323DB0C1B
:1037680003EB43030093009B1BB1009B013B0093B9
:10377800F9E702B030BC7047D806002083DE1B434F
:1037880031B310B40C46D0F888309A68536823F0E7
:10379800007323F070035360436FD0F8882090F8CB
:1037A8006A10183102EB8102526812689B1A094AA2
:1037B800934206DB47F6FE72934203DD47F6FF733A
:1037C80000E0054B1BB2238063805DF8044B704713
:1037D800704700BF0280FFFF0180FFFFD0F88830EC
:1037E8009B68012280F88C2000225A636FF0010246
:1037F8001A611A6912F0010FFBD05A6C42F40042A8
:103808005A64D0F8883093F8C020022A00D0704754
:103818001A6AB3F8AC309361D0F888305A6AB3F8B2
:10382800AE309362D0F888309A6AB3F8B0309362B9
:10383800EDE700286BD030B40246D0F888108B68CA
:103848000C684868012182F88C106FF00101196139
:10385800196911F0010FFBD06FF001011961012105
:103868005963B2F87C1005391964196911F0010F10
:10387800FBD0D96841F00101D960596C41F48061ED
:103888005964596C41F400415964D2F8881091F890
:10389800C050022D14D0032382F86A30A36823F0A5
:1038A800004323F03F0343F00803A360836823F039
:1038B800004323F03F0343F00803836030BC7047A4
:1038C8001D6A40F255531D4210D00B6AB1F8AC1076
:1038D8009961D2F88830596AB3F8AE308B61D2F862
:1038E8008830996AB3F8B0308B62D4E70B6AB1F8C4
:1038F800AC109962D2F88830596AB3F8AE308B624E
:10390800D2F88830996AB3F8B0308B62C3E7704751
:10391800002800F0DE802DE9F04F85B00646D0F88B
:103928008830DA68D3F810B0D3F814A0D3F8189018
:10393800D3F81C80D96A186B0190586B0290986B69
:1039480003909F681C685D68636823F004036360E4
:103958004FF0040CC4F800C0636823F020036360D0
:10396800202020606B6823F004036B60C5F800C05A
:103978006B6823F020036B602860564B9F4200F071
:10398800A2805548036943F4005303618AB1136860
:103998001BB1186840F00100186053681BB1186823
:1039A80040F00100186093681BB11A6842F00102E8
:1039B8001A60BBF1000F17D0D6F8883093F8C320EF
:1039C800012A05D021B1B3F8BC20D86BFFF794FECB
:1039D800DBF8003043F00103CBF80030DBF80030AF
:1039E80043F00043CBF80030BAF1000F18D0D6F8F6
:1039F800883093F8C420012A06D0019921B1B3F880
:103A0800BC20186CFFF778FEDAF8003043F00103A9
:103A1800CAF80030DAF8003043F00043CAF8003042
:103A2800B9F1000F18D0D6F8883093F8C520012ACC
:103A380006D0029921B1B3F8BC20586CFFF75CFEA0
:103A4800D9F8003043F00103C9F80030D9F8003044
:103A580043F00043C9F80030B8F1000F18D0D6F889
:103A6800883093F8C620012A06D0039921B1B3F80B
:103A7800BE20986CFFF740FED8F8003043F00103F1
:103A8800C8F80030D8F8003043F00043C8F80030D8
:103A9800A36813F0010F08D12046FFF76FFB4023FE
:103AA8002360636843F040036360AB6813F0010F61
:103AB80002D12846FFF762FB31463846FFF7BEFBC6
:103AC80005B0BDE8F08F0448036943F4006303615F
:103AD8005CE77047002C0140002004E00B68036796
:103AE8004B6843678B688367012380F86E307047A3
:103AF800036F0B60436F4B60836F8B6070470000F0
:103B0800F0B583B00446D0F888309D681F685E68B9
:103B180090F86E30D3B1BB6823F0004323F03F0325
:103B280043F00803BB60B36823F0004323F03F036E
:103B380043F00803B3608023A0F87E30042384F8A0
:103B48006A30002384F8843003B0F0BD0368019321
:103B580043690093002303674367836780F88030D5
:103B68002B6A23F4AA6323F005032B62444B0360FA
:103B7800444B43618023A0F87E30042380F88130D1
:103B880080F86A30FFF71EFD6B6823F07D4323F44D
:103B98007F0323F47F4323F08F03702BF4D1BB689A
:103BA80023F0004323F03F0343F00803BB60B368EE
:103BB80023F0004323F03F0343F00803B36004F10C
:103BC8004406D4F8882004F180073B4692F8C120C7
:103BD80031462846FEF702F92046FFF756FD002336
:103BE80084F88030284A226084F8813084F86A306A
:103BF8002046FFF7E7FCD4F888203B4692F8C1201E
:103C080031462846FEF7EAF82046FFF73EFD236FC7
:103C18001B092367636F1B096367A36F1B09A367EE
:103C2800012384F86E30019B2360009B6361AB69BC
:103C380023F00803AB61AB6923F40063AB61EB6964
:103C480023F00803EB61B4F87C306B63B4F87C3084
:103C5800AB63B4F87C30EB63AB6943F00803AB614A
:103C6800AB6943F40063AB61EB6943F00803EB61B4
:103C78002B6A43F4AA6343F005032B625EE700BF97
:103C8800C1340008853400082135000800283ED0DA
:103C980070B40346B0F87C10B0F84620881A80B299
:103CA800D3F88840B4F8B260B04215D9042283F83A
:103CB8006A204A1E92B2A168D88F4863B3F84000C0
:103CC8008863B3F84230CB630A644A68124B1A42DD
:103CD8001FD0012070BC7047B3F84850551BADB2D7
:103CE800B5EB400F04D9B4F8B610521A92B2E2E715
:103CF800324492B29142DED84FF48070A3F87E002D
:103D0800490089B28A1A92B2013A92B2D3E70020E6
:103D180070470020DEE700BF70000002034600285D
:103D280052D0F0B4D0F88820946811685568D068EB
:103D380018B3CA6C002AFCD193F86A20961C00EBD1
:103D48008606766846B10E3200EB82025768326802
:103D580022F486723A43326093F86A2002F1080628
:103D680000EB8606766846B1143200EB82004068A4
:103D7800326822F4867202433260D3F8882093F8BE
:103D88006A001E3002EB80025268B3F87E000243DC
:103D9800CA64D3F8882093F86A10243102EB8102B0
:103DA8005268B3F87E100A43EA64626822F000722F
:103DB80022F0700242F0700262608022A3F87E2036
:103DC80003F16800F0BC704770470346F8B190F8FB
:103DD80084202AB9D0F8882092F8C010022905D08A
:103DE800012283F8822003F168007047116AB2F853
:103DF800AC208A62D0F88820516AB2F8AE208A6274
:103E0800D0F88820916AB2F8B0208A62E8E7704753
:103E180068B1D0F8882091684A6C42F480624A649C
:103E2800012280F8832080F884206830704770472A
:103E3800034690F8832062B1002280F88320022094
:103E480093F8822022B140F04000002283F88220BB
:103E580070470020F4E70000D0F888309B6890F89D
:103E68006D206ABB03F118019A6922F4803222F0AE
:103E7800730242F060029A611A6A42F001021A6201
:103E88001A6A22F004021A6200225A63D0F88820C3
:103E980092F8C020012A1FD0022A2ED04A6822F4A4
:103EA800803222F0730242F070024A601A6A22F4E9
:103EB80080721A621A6A22F480621A62436F036778
:103EC800164B0360164B0361164B8360164B436019
:103ED800012380F86D3070479A6922F0807222F4CD
:103EE800E64242F480529A611A6A22F010021A627B
:103EF8001A6A42F040021A62D0E79A6922F0807288
:103F080022F4E64242F400529A611A6A42F0100220
:103F18001A621A6A22F040021A62BFE7893700085B
:103F2800E53700083B38000893360008D0F8883099
:103F38009B6890F86D20002A54D003F118019A6903
:103F480022F4803222F0730242F060029A611A6A07
:103F580042F001021A62D0F8882092F8C020012AA3
:103F680041D0022A44D0B0F87C2052085A639A699A
:103F780022F0807222F4E64242F4C0429A611A6A40
:103F880042F010021A62D0F8882092F8C020012A64
:103F980033D0022A36D0B0F87C2052089A634A6897
:103FA80022F4803222F0730242F060024A601A6AF8
:103FB80042F480721A62D0F8882092F8C020012A50
:103FC80025D0022A28D0B0F87C205208DA63154B95
:103FD8000360154B0361154B8360154B4360002349
:103FE80080F86D3070471A6A42F004021A62BAE724
:103FF8001A6A22F004021A62B5E71A6A42F040020D
:104008001A62C8E71A6A22F040021A62C3E71A6AFB
:1040180042F480621A62D6E71A6A22F480621A624F
:10402800D1E700BF3F33000871350008CD350008DF
:1040380093360008034600283AD0D0F888209268C2
:10404800012083F88C00B3F87C0001FB00F1090C17
:10405800D987D16921F0807121F4E64141F4E0412A
:10406800D161B3F87C10B3F86400091A1164B3F88D
:104078006610D163D98F5163516821F0007121F026
:10408800700141F070015160032183F86A10516892
:10409800084A114205D00120B3F84420012A02D071
:1040A80070470020F8E70021A3F844101046704735
:1040B8000020F5E77000000210B40368DAB20A497C
:1040C8008C5CC3F3072262408C5CC3F307426240F6
:1040D8008A5CC3F303614A4004498A5C43EA027379
:1040E80003605DF8044B70478C8300087C830008EC
:1040F800C2B2084B995CC0F307224A40995CC0F3EE
:1041080007424A409A5C82EA1060185CB0FA80F074
:10411800400970478C830008F8B504460D461646DA
:104128001F461046FFF7C8FF72B6A26C72B162B69E
:10413800092D2AD00A2D38D0002D42D194F8240018
:10414800002840D1022384F8243010E0092D0FD034
:104158000A2D13D0032384F8243004F12003A36428
:1041680062B6A36D3A463146606998470020F8BDAB
:10417800236C03229A71236CA364F1E7032384F868
:104188002E3004F12803A364EAE7236C1A68B242CC
:1041980007D00320626C32B102229A71236C9F808F
:1041A800E5E70020F6E76364F6E794F82E30012B84
:1041B80001D00320DBE7022384F82E30A7850020F6
:1041C800D5E70020D3E70320D1E708B502460B0462
:1041D80043EA012141F00F0142F8201F0423002186
:1041E800FFF79AFF08BD10B50446C36C40699847AD
:1041F800002384F8643084F8653084F86030636D97
:10420800042204F11C016069984710BD10B50246EC
:104218000C790B78DB0143EA04134C7843EA042356
:104228008C7843EA8433C97843EA415343F0050361
:1042380042F8203F04230021FFF76EFF10BD70B540
:1042480090F8605005F0010590F8636006F00F06DD
:104258004B0143EA011343EA851343EAC51343EAD2
:10426800062343EA023343F00603024642F8203F9E
:1042780004230021FFF750FF70BD0A2A09D090F8E7
:104288003630012B13D990F83E20012A0FD900208F
:10429800704790F82E30012B01D900207047836AAF
:1042A80004330B60012380F82E3018467047012B29
:1042B80005D990F83E30012B0CD901207047012315
:1042C80080F8363000F130020264026B04320A6072
:1042D80018467047012380F83E3000F13802026426
:1042E800826B04320A6018467047F0B5C369C3F39D
:1042F800021E017FC909457F05F03F05C3F3863CCF
:10430800C3F3465390F86C208A4228BF0A4680F8C7
:104318006C2090F86D40AC4228BF2C4680F86D4068
:1043280090F86E60664528BF664680F86E6090F823
:104338006F709F4228BF1F4680F86F70914201D06E
:104348000020F0BDA5420FD8B44501D00020F8E701
:10435800BB4201D00020F4E790F870309E4501D0B0
:104368000020EEE70120ECE70020EAE770B51446EC
:1043780090F86420022A01D0022070BD1D460A1F51
:1043880043EA041341F8043C90F86C30012B0BD03D
:104398000A2D03D1037C7BB1002303740434A3B238
:1043A8002946FFF7B9FEE8E7CA230B55631CFE262A
:1043B800CE540234A4B2EBE70120DEE738B5044658
:1043C80090F82430032B22D0836C00229A7194F841
:1043D8002E30022B1FD094F82430022B27D072B62F
:1043E800636C002B38D0A36403229A71A56D636CAB
:1043F8009A8819686069A84794F83630022B21D04A
:1044080094F83E30022B1DD00023636422E0002381
:1044180080F82430DBE704F12803A364A36DA28DA0
:10442800A16A60699847032384F82E3013E004F1E9
:104438002001A164A36D042260699847032384F8CE
:10444800243008E004F1300304F138021344626CAC
:104458009B1A636462B638BD0023A364FAE738B5D3
:104468000446C26900230B8090F86130002B00F0ED
:104478008780002380F8613090F86430012B35D0B4
:10448800022B51D043B10025636D042204F11C01B5
:1044980060699847284638BD836E052B03D0062BE4
:1044A8001DD00025F0E7FFF720FF88B194F86E30A3
:1044B80001335B01A38194F86F309B01E38194F889
:1044C8006D3001335B01A4F85E30012384F8643059
:1044D80004F16C012046FFF799FE0025D4E7C2F3EA
:1044E8000F320021FFF7ABFE0025CDE7836E052BC9
:1044F80003D0062B0ED00025C6E7FFF7F6FE10B94D
:10450800002384F8643004F16C012046FFF77EFE36
:104518000025B9E7C2F30F320121FFF790FE02230D
:1045280084F864300025AFE7836E052B05D0062B91
:1045380014D0092B18D00025A6E7FFF7D6FE48B9F6
:10454800002384F8643004F16C012046FFF75EFE16
:10455800002599E7012384F86430F4E7427F0121BC
:10456800FFF76DFE00258FE790F86030013380F883
:10457800603001230374B0F85C300B80856983E7F1
:1045880090F8621009B9002584E7FFF71EFE0025A0
:1045980084F86250236D606998477BE738B5044614
:1045A80090F8653013B1012B37D038BDC069FFF7DB
:1045B8009FFD70B3237F03F00F03A366062B0AD970
:1045C800092B0AD1A38B1B09A4F85C304BB9012332
:1045D80084F86130E9E7052B17D2012384F86230AB
:1045E800E3E7B4F85E2093420BD8656D94F86C202D
:1045F80003EB4202A1696069A847012384F865308A
:10460800D3E7022384F86230CFE7012384F86130CE
:10461800CBE7042384F86230C7E7002380F86530CD
:10462800012380F86130C0E708B5002380F86530C1
:10463800436D042200F11C014069984708BD000041
:10464800564BDA68C2F30222C2F10703042B28BFD3
:104658000423111D062940F29680D11E4FF0FF3227
:1046680002FA03F3DB4303F003038B408A40D2438F
:1046780002F0010213431B01DBB2494A82F82633D8
:1046880040235360454BDA68C2F30222C2F10703A4
:10469800042B28BF04231946131D062B75D9033A8A
:1046A8004FF0FF338B40DB4303F0030393401B01C0
:1046B800DBB23B4A82F839334FF000735360374B13
:1046C800DA68C2F30222C2F10703042B28BF0423CD
:1046D800111D06295BD9D11E4FF0FF3202FA03F3F0
:1046E800DB4303F004038B408A40D24302F001020B
:1046F80013431B01DBB22A4A82F818334FF0807348
:104708001360264BD968002182F819134FF0007105
:104718001160DA68C2F30222C2F10703042B28BF32
:1047280004231946131D062B33D9033A4FF0FF33E0
:104738008B40DB4303F0020393401B01DBB2184AB2
:1047480082F812334FF480231360144BDA68C2F3F3
:104758000222C2F10703042B28BF04231946131DA4
:10476800062B18D9033A4FF0FF338B40DB4303F095
:10477800030393401B01DBB2094A82F828334FF444
:10478800807353607047002168E7002288E70021A2
:10479800A2E70022CAE70022E5E700BF00ED00E03B
:1047A80000E100E082B0064B9A6C42F008029A647D
:1047B8009B6C03F008030193019B02B0704700BF94
:1047C8000010024082B00A4B9A6C42F004029A64CC
:1047D8009A6C02F004020192019A9A6C42F0020269
:1047E8009A649B6C03F002030093009B02B070472D
:1047F8000010024070B588B000230693079303F1B8
:10480800804303F50433DA6C42F00402DA64DA6CAC
:1048180002F004020492049ADA6C42F02002DA648C
:10482800DA6C02F020020392039ADA6C42F0010279
:10483800DA64DA6C02F001020292029ADA6C42F04F
:104848000202DA64DB6C03F002030193019B524B12
:104858001A6922F470624FF4706393FAA3F3002B81
:1048680000F08D80B3FA83F303F01F03022101FAED
:1048780003F31343484A1361126922F00F020F230E
:1048880093FAA3F3002B7CD0B3FA83F303F01F034E
:10489800012505FA03F313433F4A13614FF480647B
:1048A80005948DF81C5000268DF81D6002238DF8A4
:1048B8001E3005A8FCF704F94FF4807305938DF8B2
:1048C8001C508DF81D608DF81E5005A8FCF7F8F8EF
:1048D800324BDB6894FAA4F4002C54D0B4FA84F474
:1048E8006400032202FA04F423EA04044FF4806308
:1048F80093FAA3F3294BDC60A3F58063DA684FF4DD
:10490800807393FAA3F3002B3FD0B3FA83F35B00D1
:10491800032101FA03F322EA03034FF4807292FAA7
:10492800A2F21F4AD3601D4B1A684FF4806393FAB2
:10493800A3F363B3B3FA83F35B00032101FA03F330
:1049480022EA03034FF4806292FAA2F2134A136038
:10495800134B1A684FF4807393FAA3F3CBB1B3FAED
:1049680083F35B00032101FA03F322EA03034FF404
:10497800807292FAA2F20A4A136008B070BD20232E
:1049880072E7202382E72024AAE72023BFE7202319
:10499800D2E72023E5E700BF0000014000080048F7
:1049A80000040048F0B59BB000241794189419949B
:1049B8001194129413941494159416940D940E94BF
:1049C8000F94109409940A940B940C9405940694EB
:1049D800079408947D4BD3F8882022F0405242F087
:1049E8008052C3F88820DA6C42F40052DA64DA6C38
:1049F80002F400520292029ADA6C42F00102DA647E
:104A0800DA6C02F001020192019ADA6C42F00202B9
:104A1800DA64DB6C03F002030093009B0126039623
:104A280003250495079403A94FF09040FCF718F963
:104A3800042303930495079403A94FF09040FCF7CF
:104A48000FF90223039304950794614F03A938468D
:104A5800FCF706F94FF4804303930495079403A9E0
:104A68003846FCF7FDF817944FF40043189319944F
:104A780017A94FF0A040FBF7B5FF119412961394B5
:104A880014941594169411A94FF0A040FBF7C2FF97
:104A98004FF0A045D5F8C03023F47F5323F03F03EF
:104AA800C5F8C0302B6923F480332B612B6923F4BC
:104AB800806323F003032B610D940E940DA94548E0
:104AC800FBF760FF842309930A960B940C9409A9B9
:104AD8002846FBF7CFFFEB6823F0004323F40013CD
:104AE80043F00043EB60EB6C23F4C07343F08003A6
:104AF800EB64AB6823F0204323F03F03AB60AB6863
:104B080023F0104323F03F0343F08053AB60324B54
:104B18001A689209314BA3FB0232920902EB820216
:104B280093002F4AA2FB0323DB080BB1013BFCE7F0
:104B38004FF0A043DA6C22F4785242F4C062DA648F
:104B480028495A6922F4606242F400725A61D3F823
:104B5800B02022F00802C3F8B020DA6C22F47822E0
:104B680042F4C022DA644A6822F4E07242F0400259
:104B78004A60D3F8B02022F48052C3F8B0201A6BF0
:104B880022F4F86242F040021A635A6922F03802AD
:104B980042F020025A61D3F8B02022F00202C3F892
:104BA800B0201A6B22F4F83242F4A0421A635A6910
:104BB80022F4603242F400325A61D3F8B02022F075
:104BC8002002C3F8B0201BB0F0BD00BF00100240A7
:104BD8000004004800030050D8060020632D3E055D
:104BE800CDCCCCCC1400005030B597B00024139431
:104BF800149415940D940E940F9410941194129487
:104C080009940A940B940C940594069407940894B8
:104C1800544BD3F8882022F0405242F08052C3F817
:104C28008820DA6C42F40052DA64DA6C02F400523A
:104C38000292029ADA6C42F00102DA64DB6C03F049
:104C480001030193019B40230393032304930794D7
:104C580003A94FF09040FCF703F813944FF4004376
:104C680014931594404D13A92846FBF7BBFE0E94E8
:104C78000F941094119412940DA92846FBF7CAFEBC
:104C8800D5F8C03023F47F5323F03F03C5F8C03074
:104C98002B6923F480332B612B6923F4806323F081
:104CA80003032B618423099301230A930B940C9427
:104CB80009A92846FBF7DEFEEB6823F0004323F43E
:104CC800001343F00043EB60EB6C23F4C07343F034
:104CD8008003EB64AB6823F0204323F03F03AB6011
:104CE800AB6823F0104323F03F0343F08053AB60DD
:104CF8001E4B1A6892091E4BA3FB0232920902EB63
:104D0800820293001B4AA2FB0323DB080BB1013B81
:104D1800FCE7154BDA6C22F4785242F4C062DA648C
:104D280015495A6922F4606242F400725A61D3F854
:104D3800B02022F00802C3F8B020DA6C22F47822FE
:104D480042F41022DA644A6822F0E06242F080728B
:104D58004A60D3F8B02022F48022C3F8B02017B0FC
:104D680030BD00BF0010024000010050D8060020EE
:104D7800632D3E05CDCCCCCC1401005030B58DB0A0
:104D88000024089409940A940B94049405940694B6
:104D98000794224BDA6C42F00102DA64DB6C03F010
:104DA80001030193019B02230293032503950694B3
:104DB80002A94FF09040FBF753FF04230293039599
:104DC800069402A94FF09040FBF74AFF082302938C
:104DD800039506940DEB03014FF09040FBF740FF5D
:104DE80008940F4B09930A940E4C08A92046FBF728
:104DF800F0FFA36923F03803A361236823F48073C9
:104E08002360236823F4E03343F44043236023689A
:104E180023F0100323600DB030BD00BF0010024026
:104E2800400002000003014030B58DB00024089412
:104E380009940A940B940494059406940794214BBE
:104E4800DA6C42F00102DA64DB6C03F001030193CF
:104E5800019B2023029303250395069402A94FF092
:104E68009040FBF7FDFE402302930395069402A9A8
:104E78004FF09040FBF7F4FE8023029303950694CD
:104E880002A94FF09040FBF7EBFE08940E4B0993F4
:104E98000A940E4C08A92046FBF79BFFA36923F050
:104EA8003803A361236823F480732360236823F401
:104EB800E03343F440432360236823F01003236066
:104EC8000DB030BD00100240400002000403014054
:104ED80070B58CB00024089409940A940B94049437
:104EE800059406940794204BDA6C42F00202DA64C7
:104EF800DB6C03F002030193019B01230293032659
:104F080003960694194D02A92846FBF7A9FE022329
:104F180002930396069402A92846FBF7A1FE0423F0
:104F280002930396069402A92846FBF799FE089473
:104F38000F4B09930A940F4C08A92046FBF749FF29
:104F4800A36923F03803A361236843F480732360C3
:104F5800236823F4E03343F440432360236823F0B9
:104F6800100323600CB070BD00100240000400481C
:104F780040000200080301402DE9F043A5B00025D8
:104F8800ADF87E5020242246294617A8FBF722FABE
:104F9800302229460BA8FBF71DFA059506950795BB
:104FA800089509950A95894E336E43F40063336674
:104FB800336E03F400630493049BADF87C50209493
:104FC80041F29A0321934FF48078CDF888804FF00E
:104FD8000109CDF88C907E4C1FA92046FCF7E4F916
:104FE800236823F0800323607A4FA36943F0080302
:104FF800A36160231793189519951A951B951C950D
:105008001D951E9517AA49462046FCF729FAA3695B
:1050180023F00403A361A36943F40063A36117AAFF
:1050280010212046FCF71CFAA36923F48063A361CE
:105038007B6843F008037B6017AA41462046FCF7CB
:105048000FFA7B6823F004037B607B6843F40063FA
:105058007B607023179317AA4FF480512046FCF702
:10506800FFF97B6823F480637B60A36823F4401313
:1050780023F0700343F01003A360A36823F4803384
:1050880023F0070343F00603A360E36823F040031B
:10509800E360E36823F48043E360636823F000730C
:1050A80023F0700343F070036360636823F47003B4
:1050B8006360A36823F08003A3604FF400630B933D
:1050C8004FF480670C97CDF834803F238DF8383043
:1050D800ADF83A504FF40059CDF83C901095119521
:1050E80012954FF0007313934FF4401314931595D2
:1050F80016950BA92046FCF7DDF9F36C43F0040381
:10510800F364F36C03F004030393039BF36C43F021
:105118000203F364F36C03F002030293029BF36C43
:1051280043F00103F364F36C03F001030193019B63
:10513800CDF814900224069407940895099404263F
:105148000A9605A92448FBF78BFD4FF40043059305
:1051580006940794089509940A9605A91F48FBF731
:105168007FFDCDF8148006940794089509940626C7
:105178000A9605A94FF09040FBF772FD4FF40073B3
:10518800059306940794089509940A9605A94FF083
:105198009040FBF765FD05970694079408950994D8
:1051A8000A9605A94FF09040FBF75AFD4FF480533B
:1051B800059306940794089509940A9605A94FF053
:1051C8009040FBF74DFD25B0BDE8F083001002408C
:1051D800002C0140182C0140000800480004004839
:1051E800F0B591B0202200210DEB0200FBF7F2F898
:1051F8005F4BD3F8882022F00C02C3F888209A6D00
:1052080042F400329A659A6D02F400320192019AD2
:10521800DA6C42F00202DA64DB6C03F002030093FA
:10522800009B082302930227039700240494059403
:105238000694072607964F4D0DEB03012846FBF70A
:105248000FFD102302930397049405940694079680
:1052580002A92846FBF704FD474A136823F0FF0319
:1052680043F01A031360454B1A6822F4804222F077
:1052780010021A601A6822F440521A601A6822F062
:1052880020021A601A6822F040021A601A6842F076
:1052980080021A601A6822F440721A601A6822F4AE
:1052A80040621A60364A136823F0FF0343F01B0379
:1052B8001360344B1A6822F4804222F0100242F044
:1052C80010021A601A6822F440521A601A6822F012
:1052D80020021A601A6822F040021A601A6842F026
:1052E80080021A601A6822F440721A601A6822F45E
:1052F80040621A6008944FF4E11309930A940B94DE
:105308000C940C230D930E940F9408A91E48FCF7D7
:1053180017F91E4B53E8002F22F0604243E80021A2
:105328000029F6D153E8002F22F0606243E80021FB
:105338000029F7D1144B1A6822F000521A605A68F3
:1053480022F490425A609A6822F02A029A601A68F7
:1053580042F001021A600C4BDB6913F4001FFAD00B
:10536800094BDB6913F4800FF5D011B0F0BD00BF15
:105378000010024000040048240802401C040240B7
:10538800280802403004024000440040084400401D
:1053980072B6FEE700B58DB0002300930193029327
:1053A8001348144A02604360836040F2CF72C260BF
:1053B80003618361012203920493059206930C21F1
:1053C8000791089309920A930B916944FBF738FAFD
:1053D80050B900230093029369460548FBF788FA01
:1053E80020B90DB05DF804FBFFF7D2FFFFF7D0FF3F
:1053F800B41800200008004008B53B4A136823F0A1
:105408000F0343F004031360374B1B6803F00F03CB
:10541800042BF9D1354AD2F8803023F48073C2F8CE
:10542800803002F5D032136843F480331360304B78
:105438001B6813F4003FFAD02D4BD9682D4A0A4057
:1054480042F4AA4242F01302DA60DA682A491140AB
:105458002A4A0A43DA60DA6842F08072DA60DA6867
:1054680042F48032DA601A6842F080721A60204B87
:105478001B6813F0007FFAD01D4A936843F00303BA
:105488009360936823F0F00343F080039360184B14
:105498009B6803F00C030C2BF9D1194AD36843F02D
:1054A8008073D360174B1A6842F001021A60002219
:1054B8005A60144B5B68632BFBD90D4B9A6822F03A
:1054C800F0029A609A6822F4E0629A609A6822F47C
:1054D80060529A600C48FCF7B5F80420FAF7CAFF46
:1054E80000B908BDFFF754FF0020024000700040DB
:1054F800001002400C80FFF90C80FF071355004094
:10550800F0ED00E0001000E080FE210A08B5FAF78F
:10551800D9FFFFF771FFFFF76DF9FFF753F9FFF7B1
:1055280041FAFFF761FBFFF73DF9FFF727FCFFF7AB
:105538007BFCFFF7CDFCFFF71FFDFFF751FE00F0E6
:10554800BBFFFFF727FFFFF77BF8FEE708B5024B25
:10555800186800F088F808BD9019002008B5024BBB
:10556800186800F097F808BD9019002008B5024B9C
:10557800186800F072F808BD9019002001604260B8
:10558800836000230373C3810382C3828377037616
:10559800437643838383704701230373C181C282A7
:1055A80083770323C3777047022303730182C28280
:1055B800012383770423C377704782B003220273E1
:1055C800418209148182012383770423C37702B0BF
:1055D8007047438B0B4323EA02034383838B1943AE
:1055E80081837047837F012B00D0704710B5044634
:1055F800037B022B17D0032B24D0012B02D00323CB
:10560800A37729E04368002283F824200321006857
:10561800FCF72EFEE28AB4F90E102068FCF72CFE87
:105628000028ECD016E04368002283F824200421E7
:105638000068FCF71DFEE28AB4F910102068FCF738
:105648001BFEEDE74368012283F824204368D0F865
:1056580012201A610223A37710BD407E7047808B09
:105668007047408B704710B50446FFF7F6FF08B146
:10567800002010BD2046FFF7F2FF08B10020F8E730
:105688002046FFF7EEFF18B901202076A077F0E753
:105698000020EEE738B50446FFF7DFFF28B10C28F5
:1056A80001D0012502E0002500E000252046FFF793
:1056B800D6FF10B10025284638BD2046FFF7D1FF98
:1056C80020B9002DF7D005232376F4E70025F2E76B
:1056D80010B50446FFF7C1FF0B2801D0002010BD0C
:1056E8002046FFF7BEFF28B90023A38302232376B1
:1056F8000120F4E70020F2E7838B408B43EA004067
:105708007047C07F7047037B022B0BD0032B0FD051
:10571800012B01D001207047B0F90E30002B0DDBB2
:1057280001207047B0F91030002B0ADB01207047C8
:10573800B0F91230002B07DB012070474FF0FF3023
:1057480070474FF0FF3070474FF0FF307047B0F9A7
:105758000E007047B0F910007047C08A704708B54E
:105768000068FCF7D9FD08BD08B50068FCF76EFDB8
:10577800FCF714FD08BD08B50068FCF773FD08BD0B
:1057880082B043681868002382B262F30F03000CEA
:1057980060F31F43184602B0704782B043685868E8
:1057A800002382B262F30F03000C60F31F43184614
:1057B80002B0704782B04368D868002382B262F3AF
:1057C8000F03000C60F31F43184602B0704782B005
:1057D80043681869002382B262F30F03000C60F378
:1057E8001F43184602B0704782B04368D3F81600CA
:1057F800002382B262F30F03000C60F31F431846C4
:1058080002B0704782B04368D3F81A00002382B20E
:1058180062F30F03000C60F31F43184602B0704791
:105828004368B3F91E00704710B544680068FCF778
:10583800A3FD2082C0F30F40608210BD84B003B284
:10584800ADF8083044F6E61202FB03F3001402FB3D
:1058580000F25B42A3EB4203B3F1804F05DADA139F
:1058680012F5004F12DB12B201E047F6FF72ADF8F5
:105878000A2012F5004F0BD0029B00209AB262F367
:105888000F001B0C63F31F4004B07047034AEEE798
:1058980048F20103ADF80A30EEE700BF0080FFFFD1
:1058A80084B0094B4FF060121A6000F1FF4000F518
:1058B800FE0058609B6800209AB262F30F001B0C30
:1058C80063F31F4004B07047000C024030B587B046
:1058D80001900846FFF7E4FFBDF9043005B205FB67
:1058E80003F1BDF90620001400FB1211B1F1804F3D
:1058F80005DACC1314F5004F15DB24B201E047F6A6
:10590800FF74ADF8104014F5004F0ED002FB05F2FD
:1059180000FB0320C313B0F1804F0BDA13F5004FDF
:1059280019DB1BB208E00F4CEBE748F20101ADF8B8
:105938001010EBE747F6FF73ADF8123013F5004F80
:105948000BD0049B00209AB262F30F001B0C63F388
:105958001F4007B030BD034BEEE748F20103ADF836
:105968001230EEE70080FFFF10B586B001900846C0
:10597800FFF796FFBDF9043004B2BDF90610001414
:1059880000FB01F204FB032242F3CF32ADF80C20F6
:1059980001FB04F100FB131040F3CF30ADF80E000B
:1059A800039B00209AB262F30F001B0C63F31F40A5
:1059B80006B010BD002809DD72B6054B40F2691229
:1059C8001A6058609868C00B62B67047002070472C
:1059D800000C024030B585B005460024ADF80C40F7
:1059E800ADF80E40ADF80840ADF80A40ADF80440F7
:1059F800ADF806401549262202FB00F28B180398E1
:105A08008850019858600298D8601861DC83C3F800
:105A180016000198C3F81A001C8421460C4B53F851
:105A28002500FCF7EAF821460A4B53F82500FCF755
:105A3800E4F8094B53F82500FCF70AFC074B53F828
:105A4800250000F0BEFE05B030BD00BF08070020ED
:105A5800F4050020F0050020F8050020400700208C
:105A6800002873D02DE9F04F85B08246DFF83091D9
:105A7800002789F80070364B364A1A60DFF824810F
:105A88003548C8F80000FDF743FF3448FEF7ABFB84
:105A9800FCF766F9324D2846FCF798F8314E304647
:105AA800FCF7ACFE304C324629462068FCF7BAFBBE
:105AB8002E48FDF7E9F92E4D2846FDF768FAD8F883
:105AC800003000932B4B2A4621682B48FCF77EFABE
